{
  "_format": "hh-sol-artifact-1",
  "contractName": "LetterBoxing",
  "sourceName": "contracts/LetterBoxing.sol",
  "abi": [
    {
      "inputs": [],
      "stateMutability": "nonpayable",
      "type": "constructor"
    },
    {
      "inputs": [],
      "name": "ERC721AddressZeroIsNotaValidOwner",
      "type": "error"
    },
    {
      "inputs": [],
      "name": "ERC721ApprovalToCurrentOwner",
      "type": "error"
    },
    {
      "inputs": [],
      "name": "ERC721ApproveCallerIsNotOwnerNorApprovedForAll",
      "type": "error"
    },
    {
      "inputs": [],
      "name": "ERC721ApproveToCaller",
      "type": "error"
    },
    {
      "inputs": [],
      "name": "ERC721ApprovedQueryForNonexistentToken",
      "type": "error"
    },
    {
      "inputs": [],
      "name": "ERC721MintToTheZeroAddress",
      "type": "error"
    },
    {
      "inputs": [],
      "name": "ERC721NotApprovedOrOwner",
      "type": "error"
    },
    {
      "inputs": [],
      "name": "ERC721OwnerQueryForNonexistentToken",
      "type": "error"
    },
    {
      "inputs": [],
      "name": "ERC721TokenAlreadyMinted",
      "type": "error"
    },
    {
      "inputs": [],
      "name": "ERC721TransferFromIncorrectOwner",
      "type": "error"
    },
    {
      "inputs": [],
      "name": "ERC721TransferToNonReceiverImplementer",
      "type": "error"
    },
    {
      "inputs": [],
      "name": "ERC721TransferToTheZeroAddress",
      "type": "error"
    },
    {
      "inputs": [],
      "name": "RMRKBadPriorityListLength",
      "type": "error"
    },
    {
      "inputs": [],
      "name": "RMRKIndexOutOfRange",
      "type": "error"
    },
    {
      "inputs": [],
      "name": "RMRKMaxPendingResourcesReached",
      "type": "error"
    },
    {
      "inputs": [],
      "name": "RMRKNoResourceMatchingId",
      "type": "error"
    },
    {
      "inputs": [],
      "name": "RMRKOnlyIssuer",
      "type": "error"
    },
    {
      "inputs": [],
      "name": "RMRKResourceAlreadyExists",
      "type": "error"
    },
    {
      "inputs": [],
      "name": "RMRKResourceNotFoundInStorage",
      "type": "error"
    },
    {
      "inputs": [],
      "name": "RMRKWriteToZero",
      "type": "error"
    },
    {
      "anonymous": false,
      "inputs": [
        {
          "indexed": true,
          "internalType": "address",
          "name": "owner",
          "type": "address"
        },
        {
          "indexed": true,
          "internalType": "address",
          "name": "approved",
          "type": "address"
        },
        {
          "indexed": true,
          "internalType": "uint256",
          "name": "tokenId",
          "type": "uint256"
        }
      ],
      "name": "Approval",
      "type": "event"
    },
    {
      "anonymous": false,
      "inputs": [
        {
          "indexed": true,
          "internalType": "address",
          "name": "owner",
          "type": "address"
        },
        {
          "indexed": true,
          "internalType": "address",
          "name": "operator",
          "type": "address"
        },
        {
          "indexed": false,
          "internalType": "bool",
          "name": "approved",
          "type": "bool"
        }
      ],
      "name": "ApprovalForAll",
      "type": "event"
    },
    {
      "anonymous": false,
      "inputs": [
        {
          "indexed": true,
          "internalType": "uint256",
          "name": "tokenId",
          "type": "uint256"
        },
        {
          "indexed": false,
          "internalType": "uint64",
          "name": "resourceId",
          "type": "uint64"
        }
      ],
      "name": "ResourceAccepted",
      "type": "event"
    },
    {
      "anonymous": false,
      "inputs": [
        {
          "indexed": true,
          "internalType": "uint256",
          "name": "tokenId",
          "type": "uint256"
        },
        {
          "indexed": false,
          "internalType": "uint64",
          "name": "resourceId",
          "type": "uint64"
        }
      ],
      "name": "ResourceAddedToToken",
      "type": "event"
    },
    {
      "anonymous": false,
      "inputs": [
        {
          "indexed": false,
          "internalType": "uint64",
          "name": "resourceId",
          "type": "uint64"
        },
        {
          "indexed": false,
          "internalType": "uint128",
          "name": "customResourceId",
          "type": "uint128"
        }
      ],
      "name": "ResourceCustomDataAdded",
      "type": "event"
    },
    {
      "anonymous": false,
      "inputs": [
        {
          "indexed": false,
          "internalType": "uint64",
          "name": "resourceId",
          "type": "uint64"
        },
        {
          "indexed": false,
          "internalType": "uint128",
          "name": "customResourceId",
          "type": "uint128"
        }
      ],
      "name": "ResourceCustomDataRemoved",
      "type": "event"
    },
    {
      "anonymous": false,
      "inputs": [
        {
          "indexed": false,
          "internalType": "uint64",
          "name": "resourceId",
          "type": "uint64"
        },
        {
          "indexed": false,
          "internalType": "uint128",
          "name": "customResourceId",
          "type": "uint128"
        }
      ],
      "name": "ResourceCustomDataSet",
      "type": "event"
    },
    {
      "anonymous": false,
      "inputs": [
        {
          "indexed": true,
          "internalType": "uint256",
          "name": "tokenId",
          "type": "uint256"
        },
        {
          "indexed": false,
          "internalType": "uint64",
          "name": "resourceId",
          "type": "uint64"
        },
        {
          "indexed": false,
          "internalType": "uint64",
          "name": "overwrites",
          "type": "uint64"
        }
      ],
      "name": "ResourceOverwriteProposed",
      "type": "event"
    },
    {
      "anonymous": false,
      "inputs": [
        {
          "indexed": true,
          "internalType": "uint256",
          "name": "tokenId",
          "type": "uint256"
        },
        {
          "indexed": false,
          "internalType": "uint64",
          "name": "overwritten",
          "type": "uint64"
        }
      ],
      "name": "ResourceOverwritten",
      "type": "event"
    },
    {
      "anonymous": false,
      "inputs": [
        {
          "indexed": true,
          "internalType": "uint256",
          "name": "tokenId",
          "type": "uint256"
        }
      ],
      "name": "ResourcePrioritySet",
      "type": "event"
    },
    {
      "anonymous": false,
      "inputs": [
        {
          "indexed": true,
          "internalType": "uint256",
          "name": "tokenId",
          "type": "uint256"
        },
        {
          "indexed": false,
          "internalType": "uint64",
          "name": "resourceId",
          "type": "uint64"
        }
      ],
      "name": "ResourceRejected",
      "type": "event"
    },
    {
      "anonymous": false,
      "inputs": [
        {
          "indexed": false,
          "internalType": "uint64",
          "name": "resourceId",
          "type": "uint64"
        }
      ],
      "name": "ResourceSet",
      "type": "event"
    },
    {
      "anonymous": false,
      "inputs": [
        {
          "indexed": true,
          "internalType": "address",
          "name": "from",
          "type": "address"
        },
        {
          "indexed": true,
          "internalType": "address",
          "name": "to",
          "type": "address"
        },
        {
          "indexed": true,
          "internalType": "uint256",
          "name": "tokenId",
          "type": "uint256"
        }
      ],
      "name": "Transfer",
      "type": "event"
    },
    {
      "inputs": [
        {
          "internalType": "uint256",
          "name": "tokenId",
          "type": "uint256"
        },
        {
          "internalType": "uint256",
          "name": "index",
          "type": "uint256"
        }
      ],
      "name": "acceptResource",
      "outputs": [],
      "stateMutability": "nonpayable",
      "type": "function"
    },
    {
      "inputs": [
        {
          "internalType": "uint64",
          "name": "id",
          "type": "uint64"
        },
        {
          "internalType": "string",
          "name": "metadataURI",
          "type": "string"
        },
        {
          "internalType": "uint128[]",
          "name": "custom",
          "type": "uint128[]"
        }
      ],
      "name": "addResourceEntry",
      "outputs": [],
      "stateMutability": "nonpayable",
      "type": "function"
    },
    {
      "inputs": [
        {
          "internalType": "uint256",
          "name": "tokenId",
          "type": "uint256"
        },
        {
          "internalType": "uint64",
          "name": "resourceId",
          "type": "uint64"
        },
        {
          "internalType": "uint64",
          "name": "overwrites",
          "type": "uint64"
        }
      ],
      "name": "addResourceToToken",
      "outputs": [],
      "stateMutability": "nonpayable",
      "type": "function"
    },
    {
      "inputs": [
        {
          "internalType": "address",
          "name": "to",
          "type": "address"
        },
        {
          "internalType": "uint256",
          "name": "tokenId",
          "type": "uint256"
        }
      ],
      "name": "approve",
      "outputs": [],
      "stateMutability": "nonpayable",
      "type": "function"
    },
    {
      "inputs": [
        {
          "internalType": "address",
          "name": "owner",
          "type": "address"
        }
      ],
      "name": "balanceOf",
      "outputs": [
        {
          "internalType": "uint256",
          "name": "",
          "type": "uint256"
        }
      ],
      "stateMutability": "view",
      "type": "function"
    },
    {
      "inputs": [],
      "name": "feeGetter",
      "outputs": [
        {
          "internalType": "uint256",
          "name": "",
          "type": "uint256"
        }
      ],
      "stateMutability": "view",
      "type": "function"
    },
    {
      "inputs": [
        {
          "internalType": "uint256",
          "name": "newMintFee_",
          "type": "uint256"
        }
      ],
      "name": "feeSetter",
      "outputs": [],
      "stateMutability": "nonpayable",
      "type": "function"
    },
    {
      "inputs": [
        {
          "internalType": "uint256",
          "name": "tokenId",
          "type": "uint256"
        }
      ],
      "name": "getActiveResourcePriorities",
      "outputs": [
        {
          "internalType": "uint16[]",
          "name": "",
          "type": "uint16[]"
        }
      ],
      "stateMutability": "view",
      "type": "function"
    },
    {
      "inputs": [
        {
          "internalType": "uint256",
          "name": "tokenId",
          "type": "uint256"
        }
      ],
      "name": "getActiveResources",
      "outputs": [
        {
          "internalType": "uint64[]",
          "name": "",
          "type": "uint64[]"
        }
      ],
      "stateMutability": "view",
      "type": "function"
    },
    {
      "inputs": [],
      "name": "getAllResources",
      "outputs": [
        {
          "internalType": "uint64[]",
          "name": "",
          "type": "uint64[]"
        }
      ],
      "stateMutability": "view",
      "type": "function"
    },
    {
      "inputs": [
        {
          "internalType": "uint256",
          "name": "tokenId",
          "type": "uint256"
        }
      ],
      "name": "getApproved",
      "outputs": [
        {
          "internalType": "address",
          "name": "",
          "type": "address"
        }
      ],
      "stateMutability": "view",
      "type": "function"
    },
    {
      "inputs": [
        {
          "internalType": "uint64",
          "name": "resourceId",
          "type": "uint64"
        },
        {
          "internalType": "uint128",
          "name": "customResourceId",
          "type": "uint128"
        }
      ],
      "name": "getCustomResourceData",
      "outputs": [
        {
          "internalType": "bytes",
          "name": "",
          "type": "bytes"
        }
      ],
      "stateMutability": "view",
      "type": "function"
    },
    {
      "inputs": [],
      "name": "getFallbackURI",
      "outputs": [
        {
          "internalType": "string",
          "name": "",
          "type": "string"
        }
      ],
      "stateMutability": "view",
      "type": "function"
    },
    {
      "inputs": [
        {
          "internalType": "uint256",
          "name": "tokenId",
          "type": "uint256"
        }
      ],
      "name": "getFullPendingResources",
      "outputs": [
        {
          "components": [
            {
              "internalType": "uint64",
              "name": "id",
              "type": "uint64"
            },
            {
              "internalType": "string",
              "name": "metadataURI",
              "type": "string"
            },
            {
              "internalType": "uint128[]",
              "name": "custom",
              "type": "uint128[]"
            }
          ],
          "internalType": "struct IRMRKMultiResource.Resource[]",
          "name": "",
          "type": "tuple[]"
        }
      ],
      "stateMutability": "view",
      "type": "function"
    },
    {
      "inputs": [
        {
          "internalType": "uint256",
          "name": "tokenId",
          "type": "uint256"
        }
      ],
      "name": "getFullResources",
      "outputs": [
        {
          "components": [
            {
              "internalType": "uint64",
              "name": "id",
              "type": "uint64"
            },
            {
              "internalType": "string",
              "name": "metadataURI",
              "type": "string"
            },
            {
              "internalType": "uint128[]",
              "name": "custom",
              "type": "uint128[]"
            }
          ],
          "internalType": "struct IRMRKMultiResource.Resource[]",
          "name": "",
          "type": "tuple[]"
        }
      ],
      "stateMutability": "view",
      "type": "function"
    },
    {
      "inputs": [],
      "name": "getIssuer",
      "outputs": [
        {
          "internalType": "address",
          "name": "",
          "type": "address"
        }
      ],
      "stateMutability": "view",
      "type": "function"
    },
    {
      "inputs": [
        {
          "internalType": "uint256",
          "name": "tokenId",
          "type": "uint256"
        },
        {
          "internalType": "uint256",
          "name": "index",
          "type": "uint256"
        }
      ],
      "name": "getPendingResObjectByIndex",
      "outputs": [
        {
          "components": [
            {
              "internalType": "uint64",
              "name": "id",
              "type": "uint64"
            },
            {
              "internalType": "string",
              "name": "metadataURI",
              "type": "string"
            },
            {
              "internalType": "uint128[]",
              "name": "custom",
              "type": "uint128[]"
            }
          ],
          "internalType": "struct IRMRKMultiResource.Resource",
          "name": "",
          "type": "tuple"
        }
      ],
      "stateMutability": "view",
      "type": "function"
    },
    {
      "inputs": [
        {
          "internalType": "uint256",
          "name": "tokenId",
          "type": "uint256"
        }
      ],
      "name": "getPendingResources",
      "outputs": [
        {
          "internalType": "uint64[]",
          "name": "",
          "type": "uint64[]"
        }
      ],
      "stateMutability": "view",
      "type": "function"
    },
    {
      "inputs": [
        {
          "internalType": "uint256",
          "name": "tokenId",
          "type": "uint256"
        },
        {
          "internalType": "uint256",
          "name": "index",
          "type": "uint256"
        }
      ],
      "name": "getResObjectByIndex",
      "outputs": [
        {
          "components": [
            {
              "internalType": "uint64",
              "name": "id",
              "type": "uint64"
            },
            {
              "internalType": "string",
              "name": "metadataURI",
              "type": "string"
            },
            {
              "internalType": "uint128[]",
              "name": "custom",
              "type": "uint128[]"
            }
          ],
          "internalType": "struct IRMRKMultiResource.Resource",
          "name": "",
          "type": "tuple"
        }
      ],
      "stateMutability": "view",
      "type": "function"
    },
    {
      "inputs": [
        {
          "internalType": "uint64",
          "name": "resourceId",
          "type": "uint64"
        }
      ],
      "name": "getResource",
      "outputs": [
        {
          "components": [
            {
              "internalType": "uint64",
              "name": "id",
              "type": "uint64"
            },
            {
              "internalType": "string",
              "name": "metadataURI",
              "type": "string"
            },
            {
              "internalType": "uint128[]",
              "name": "custom",
              "type": "uint128[]"
            }
          ],
          "internalType": "struct IRMRKMultiResource.Resource",
          "name": "",
          "type": "tuple"
        }
      ],
      "stateMutability": "view",
      "type": "function"
    },
    {
      "inputs": [
        {
          "internalType": "uint256",
          "name": "tokenId",
          "type": "uint256"
        },
        {
          "internalType": "uint64",
          "name": "resourceId",
          "type": "uint64"
        }
      ],
      "name": "getResourceOverwrites",
      "outputs": [
        {
          "internalType": "uint64",
          "name": "",
          "type": "uint64"
        }
      ],
      "stateMutability": "view",
      "type": "function"
    },
    {
      "inputs": [
        {
          "internalType": "address",
          "name": "owner",
          "type": "address"
        },
        {
          "internalType": "address",
          "name": "operator",
          "type": "address"
        }
      ],
      "name": "isApprovedForAll",
      "outputs": [
        {
          "internalType": "bool",
          "name": "",
          "type": "bool"
        }
      ],
      "stateMutability": "view",
      "type": "function"
    },
    {
      "inputs": [],
      "name": "isPaused",
      "outputs": [
        {
          "internalType": "bool",
          "name": "",
          "type": "bool"
        }
      ],
      "stateMutability": "view",
      "type": "function"
    },
    {
      "inputs": [
        {
          "internalType": "uint64",
          "name": "resourceId",
          "type": "uint64"
        }
      ],
      "name": "isTokenEnumeratedResource",
      "outputs": [
        {
          "internalType": "bool",
          "name": "",
          "type": "bool"
        }
      ],
      "stateMutability": "view",
      "type": "function"
    },
    {
      "inputs": [],
      "name": "letterboxList",
      "outputs": [
        {
          "internalType": "uint256[]",
          "name": "",
          "type": "uint256[]"
        }
      ],
      "stateMutability": "view",
      "type": "function"
    },
    {
      "inputs": [
        {
          "internalType": "address",
          "name": "owner",
          "type": "address"
        }
      ],
      "name": "letterboxesHeldBy",
      "outputs": [
        {
          "internalType": "uint256[]",
          "name": "",
          "type": "uint256[]"
        }
      ],
      "stateMutability": "view",
      "type": "function"
    },
    {
      "inputs": [
        {
          "internalType": "address",
          "name": "to_",
          "type": "address"
        },
        {
          "internalType": "string",
          "name": "uri_",
          "type": "string"
        }
      ],
      "name": "mintLetterbox",
      "outputs": [],
      "stateMutability": "nonpayable",
      "type": "function"
    },
    {
      "inputs": [
        {
          "internalType": "address",
          "name": "to_",
          "type": "address"
        },
        {
          "internalType": "string",
          "name": "uri_",
          "type": "string"
        }
      ],
      "name": "mintStamp",
      "outputs": [],
      "stateMutability": "payable",
      "type": "function"
    },
    {
      "inputs": [],
      "name": "name",
      "outputs": [
        {
          "internalType": "string",
          "name": "",
          "type": "string"
        }
      ],
      "stateMutability": "view",
      "type": "function"
    },
    {
      "inputs": [],
      "name": "nextResourceId",
      "outputs": [
        {
          "internalType": "uint256",
          "name": "",
          "type": "uint256"
        }
      ],
      "stateMutability": "view",
      "type": "function"
    },
    {
      "inputs": [
        {
          "internalType": "uint256",
          "name": "tokenId",
          "type": "uint256"
        }
      ],
      "name": "ownerOf",
      "outputs": [
        {
          "internalType": "address",
          "name": "",
          "type": "address"
        }
      ],
      "stateMutability": "view",
      "type": "function"
    },
    {
      "inputs": [
        {
          "internalType": "bool",
          "name": "state",
          "type": "bool"
        }
      ],
      "name": "pauseContract",
      "outputs": [],
      "stateMutability": "nonpayable",
      "type": "function"
    },
    {
      "inputs": [
        {
          "internalType": "uint256",
          "name": "tokenId",
          "type": "uint256"
        }
      ],
      "name": "rejectAllResources",
      "outputs": [],
      "stateMutability": "nonpayable",
      "type": "function"
    },
    {
      "inputs": [
        {
          "internalType": "uint256",
          "name": "tokenId",
          "type": "uint256"
        },
        {
          "internalType": "uint256",
          "name": "index",
          "type": "uint256"
        }
      ],
      "name": "rejectResource",
      "outputs": [],
      "stateMutability": "nonpayable",
      "type": "function"
    },
    {
      "inputs": [
        {
          "internalType": "address",
          "name": "from",
          "type": "address"
        },
        {
          "internalType": "address",
          "name": "to",
          "type": "address"
        },
        {
          "internalType": "uint256",
          "name": "tokenId",
          "type": "uint256"
        }
      ],
      "name": "safeTransferFrom",
      "outputs": [],
      "stateMutability": "nonpayable",
      "type": "function"
    },
    {
      "inputs": [
        {
          "internalType": "address",
          "name": "from",
          "type": "address"
        },
        {
          "internalType": "address",
          "name": "to",
          "type": "address"
        },
        {
          "internalType": "uint256",
          "name": "tokenId",
          "type": "uint256"
        },
        {
          "internalType": "bytes",
          "name": "data",
          "type": "bytes"
        }
      ],
      "name": "safeTransferFrom",
      "outputs": [],
      "stateMutability": "nonpayable",
      "type": "function"
    },
    {
      "inputs": [
        {
          "internalType": "address",
          "name": "operator",
          "type": "address"
        },
        {
          "internalType": "bool",
          "name": "approved",
          "type": "bool"
        }
      ],
      "name": "setApprovalForAll",
      "outputs": [],
      "stateMutability": "nonpayable",
      "type": "function"
    },
    {
      "inputs": [
        {
          "internalType": "address",
          "name": "issuer",
          "type": "address"
        }
      ],
      "name": "setIssuer",
      "outputs": [],
      "stateMutability": "nonpayable",
      "type": "function"
    },
    {
      "inputs": [
        {
          "internalType": "uint256",
          "name": "tokenId",
          "type": "uint256"
        },
        {
          "internalType": "uint16[]",
          "name": "priorities",
          "type": "uint16[]"
        }
      ],
      "name": "setPriority",
      "outputs": [],
      "stateMutability": "nonpayable",
      "type": "function"
    },
    {
      "inputs": [
        {
          "internalType": "address",
          "name": "owner",
          "type": "address"
        }
      ],
      "name": "stampsHeldBy",
      "outputs": [
        {
          "internalType": "uint256",
          "name": "",
          "type": "uint256"
        }
      ],
      "stateMutability": "view",
      "type": "function"
    },
    {
      "inputs": [
        {
          "internalType": "bytes4",
          "name": "interfaceId",
          "type": "bytes4"
        }
      ],
      "name": "supportsInterface",
      "outputs": [
        {
          "internalType": "bool",
          "name": "",
          "type": "bool"
        }
      ],
      "stateMutability": "view",
      "type": "function"
    },
    {
      "inputs": [],
      "name": "symbol",
      "outputs": [
        {
          "internalType": "string",
          "name": "",
          "type": "string"
        }
      ],
      "stateMutability": "view",
      "type": "function"
    },
    {
      "inputs": [
        {
          "internalType": "uint256",
          "name": "tokenId",
          "type": "uint256"
        }
      ],
      "name": "tokenURI",
      "outputs": [
        {
          "internalType": "string",
          "name": "",
          "type": "string"
        }
      ],
      "stateMutability": "view",
      "type": "function"
    },
    {
      "inputs": [
        {
          "internalType": "uint256",
          "name": "tokenId",
          "type": "uint256"
        },
        {
          "internalType": "uint256",
          "name": "index",
          "type": "uint256"
        }
      ],
      "name": "tokenURIAtIndex",
      "outputs": [
        {
          "internalType": "string",
          "name": "",
          "type": "string"
        }
      ],
      "stateMutability": "view",
      "type": "function"
    },
    {
      "inputs": [
        {
          "internalType": "uint256",
          "name": "tokenId",
          "type": "uint256"
        },
        {
          "internalType": "uint128",
          "name": "customResourceId",
          "type": "uint128"
        },
        {
          "internalType": "bytes",
          "name": "customResourceValue",
          "type": "bytes"
        }
      ],
      "name": "tokenURIForCustomValue",
      "outputs": [
        {
          "internalType": "string",
          "name": "",
          "type": "string"
        }
      ],
      "stateMutability": "view",
      "type": "function"
    },
    {
      "inputs": [
        {
          "internalType": "address",
          "name": "to",
          "type": "address"
        },
        {
          "internalType": "uint256",
          "name": "tokenId",
          "type": "uint256"
        }
      ],
      "name": "transfer",
      "outputs": [],
      "stateMutability": "nonpayable",
      "type": "function"
    },
    {
      "inputs": [
        {
          "internalType": "address",
          "name": "from",
          "type": "address"
        },
        {
          "internalType": "address",
          "name": "to",
          "type": "address"
        },
        {
          "internalType": "uint256",
          "name": "tokenId",
          "type": "uint256"
        }
      ],
      "name": "transferFrom",
      "outputs": [],
      "stateMutability": "nonpayable",
      "type": "function"
    },
    {
      "inputs": [],
      "name": "withdraw",
      "outputs": [],
      "stateMutability": "payable",
      "type": "function"
    }
  ],
  "bytecode": "0x60806040523480156200001157600080fd5b506040518060400160405280601081526020017f4e544c6574746572426f78696e675631000000000000000000000000000000008152506040518060400160405280600781526020017f4c545242587631000000000000000000000000000000000000000000000000008152508181620000a0620000946200011f60201b60201c565b6200012760201b60201c565b8160019081620000b19190620003fa565b508060029081620000c39190620003fa565b50505050506000601381905550620000e760126200016a60201b620021b81760201c565b620000fe60116200016a60201b620021b81760201c565b6000601460006101000a81548160ff021916908315150217905550620004e1565b600033905090565b806000806101000a81548173ffffffffffffffffffffffffffffffffffffffff021916908373ffffffffffffffffffffffffffffffffffffffff16021790555050565b6001816000016000828254019250508190555050565b600081519050919050565b7f4e487b7100000000000000000000000000000000000000000000000000000000600052604160045260246000fd5b7f4e487b7100000000000000000000000000000000000000000000000000000000600052602260045260246000fd5b600060028204905060018216806200020257607f821691505b602082108103620002185762000217620001ba565b5b50919050565b60008190508160005260206000209050919050565b60006020601f8301049050919050565b600082821b905092915050565b600060088302620002827fffffffffffffffffffffffffffffffffffffffffffffffffffffffffffffffff8262000243565b6200028e868362000243565b95508019841693508086168417925050509392505050565b6000819050919050565b6000819050919050565b6000620002db620002d5620002cf84620002a6565b620002b0565b620002a6565b9050919050565b6000819050919050565b620002f783620002ba565b6200030f6200030682620002e2565b84845462000250565b825550505050565b600090565b6200032662000317565b62000333818484620002ec565b505050565b5b818110156200035b576200034f6000826200031c565b60018101905062000339565b5050565b601f821115620003aa5762000374816200021e565b6200037f8462000233565b810160208510156200038f578190505b620003a76200039e8562000233565b83018262000338565b50505b505050565b600082821c905092915050565b6000620003cf60001984600802620003af565b1980831691505092915050565b6000620003ea8383620003bc565b9150826002028217905092915050565b620004058262000180565b67ffffffffffffffff8111156200042157620004206200018b565b5b6200042d8254620001e9565b6200043a8282856200035f565b600060209050601f8311600181146200047257600084156200045d578287015190505b620004698582620003dc565b865550620004d9565b601f19841662000482866200021e565b60005b82811015620004ac5784890151825560018201915060208501945060208101905062000485565b86831015620004cc5784890151620004c8601f891682620003bc565b8355505b6001600288020188555050505b505050505050565b615bef80620004f16000396000f3fe6080604052600436106102935760003560e01c806392401eb61161015a578063cfd71cf4116100c1578063e985e9c51161007a578063e985e9c514610a8a578063ec9e248214610ac7578063efad29bf14610af0578063f638085c14610b1b578063f64669c314610b58578063fe679c6214610b9557610293565b8063cfd71cf414610965578063d61fcfc514610981578063daf30477146109be578063dd6433d4146109fb578063e272b89214610a24578063e2e286af14610a4d57610293565b8063a9059cbb11610113578063a9059cbb14610857578063b187bd2614610880578063b88d4fde146108ab578063baace33e146108d4578063c48a4243146108ff578063c87b56dd1461092857610293565b806392401eb61461072157806395d89b411461074c578063a0eaec4314610777578063a221abf3146107b4578063a22cb465146107f1578063a8cf55641461081a57610293565b80633ccfd60b116101fe5780635de1b4f7116101b75780635de1b4f7146105ff5780636352211e1461062a5780636776a7ac1461066757806370a0823114610692578063739817dd146106cf5780637b2e40fa146106f857610293565b80633ccfd60b14610512578063408fc2651461051c57806342842e0e1461054557806348afe9cd1461056e57806352556421146105ab57806355cc4e57146105d657610293565b80630cc83235116102505780630cc83235146103cc5780630e90683114610409578063135627cd1461043257806322835f591461046f57806323b872dd146104ac57806331c57d13146104d557610293565b806301ffc9a7146102985780630485c741146102d557806306fdde0314610312578063081812fc1461033d578063095ea7b31461037a578063096835be146103a3575b600080fd5b3480156102a457600080fd5b506102bf60048036038101906102ba9190614277565b610bd2565b6040516102cc91906142bf565b60405180910390f35b3480156102e157600080fd5b506102fc60048036038101906102f79190614310565b610c4c565b60405161030991906145ec565b60405180910390f35b34801561031e57600080fd5b50610327610cf9565b6040516103349190614658565b60405180910390f35b34801561034957600080fd5b50610364600480360381019061035f9190614310565b610d8b565b60405161037191906146bb565b60405180910390f35b34801561038657600080fd5b506103a1600480360381019061039c9190614702565b610e07565b005b3480156103af57600080fd5b506103ca60048036038101906103c591906148c4565b610f10565b005b3480156103d857600080fd5b506103f360048036038101906103ee9190614310565b610f29565b60405161040091906145ec565b60405180910390f35b34801561041557600080fd5b50610430600480360381019061042b91906149d5565b610fd6565b005b34801561043e57600080fd5b5061045960048036038101906104549190614310565b611072565b6040516104669190614aef565b60405180910390f35b34801561047b57600080fd5b5061049660048036038101906104919190614b11565b611105565b6040516104a39190614bfc565b60405180910390f35b3480156104b857600080fd5b506104d360048036038101906104ce9190614c1e565b611241565b005b3480156104e157600080fd5b506104fc60048036038101906104f79190614c9d565b611298565b60405161050991906142bf565b60405180910390f35b61051a6112d6565b005b34801561052857600080fd5b50610543600480360381019061053e9190614310565b611327565b005b34801561055157600080fd5b5061056c60048036038101906105679190614c1e565b611339565b005b34801561057a57600080fd5b5061059560048036038101906105909190614b11565b611359565b6040516105a29190614cd9565b60405180910390f35b3480156105b757600080fd5b506105c06113a2565b6040516105cd91906146bb565b60405180910390f35b3480156105e257600080fd5b506105fd60048036038101906105f89190614b11565b6113cb565b005b34801561060b57600080fd5b506106146113df565b6040516106219190614cd9565b60405180910390f35b34801561063657600080fd5b50610651600480360381019061064c9190614310565b6113e9565b60405161065e91906146bb565b60405180910390f35b34801561067357600080fd5b5061067c611491565b6040516106899190614bfc565b60405180910390f35b34801561069e57600080fd5b506106b960048036038101906106b49190614b11565b6114e9565b6040516106c69190614cd9565b60405180910390f35b3480156106db57600080fd5b506106f660048036038101906106f19190614cf4565b611597565b005b34801561070457600080fd5b5061071f600480360381019061071a9190614310565b6115b0565b005b34801561072d57600080fd5b506107366115c7565b6040516107439190614658565b60405180910390f35b34801561075857600080fd5b50610761611659565b60405161076e9190614658565b60405180910390f35b34801561078357600080fd5b5061079e60048036038101906107999190614310565b6116eb565b6040516107ab9190614de3565b60405180910390f35b3480156107c057600080fd5b506107db60048036038101906107d69190614cf4565b61178a565b6040516107e89190614e5c565b60405180910390f35b3480156107fd57600080fd5b5061081860048036038101906108139190614eaa565b6117cb565b005b34801561082657600080fd5b50610841600480360381019061083c9190614cf4565b6117e1565b60405161084e9190614e5c565b60405180910390f35b34801561086357600080fd5b5061087e60048036038101906108799190614702565b611822565b005b34801561088c57600080fd5b50610895611838565b6040516108a291906142bf565b60405180910390f35b3480156108b757600080fd5b506108d260048036038101906108cd9190614f8b565b611857565b005b3480156108e057600080fd5b506108e96118b0565b6040516108f69190614de3565b60405180910390f35b34801561090b57600080fd5b506109266004803603810190610921919061500e565b61193c565b005b34801561093457600080fd5b5061094f600480360381019061094a9190614310565b6119a2565b60405161095c9190614658565b60405180910390f35b61097f600480360381019061097a91906149d5565b6119b6565b005b34801561098d57600080fd5b506109a860048036038101906109a3919061508d565b611abb565b6040516109b59190614658565b60405180910390f35b3480156109ca57600080fd5b506109e560048036038101906109e09190614cf4565b611c73565b6040516109f29190614658565b60405180910390f35b348015610a0757600080fd5b50610a226004803603810190610a1d9190614cf4565b611c87565b005b348015610a3057600080fd5b50610a4b6004803603810190610a4691906150fc565b611ca0565b005b348015610a5957600080fd5b50610a746004803603810190610a6f9190614c9d565b611cc5565b604051610a819190614e5c565b60405180910390f35b348015610a9657600080fd5b50610ab16004803603810190610aac9190615129565b611ebe565b604051610abe91906142bf565b60405180910390f35b348015610ad357600080fd5b50610aee6004803603810190610ae9919061522c565b611f52565b005b348015610afc57600080fd5b50610b05611fc2565b604051610b129190614cd9565b60405180910390f35b348015610b2757600080fd5b50610b426004803603810190610b3d91906152b7565b611fd3565b604051610b4f919061534c565b60405180910390f35b348015610b6457600080fd5b50610b7f6004803603810190610b7a9190614310565b6120c2565b604051610b8c9190614de3565b60405180910390f35b348015610ba157600080fd5b50610bbc6004803603810190610bb7919061536e565b612161565b604051610bc991906153bd565b60405180910390f35b60007fe0418d4c000000000000000000000000000000000000000000000000000000007bffffffffffffffffffffffffffffffffffffffffffffffffffffffff1916827bffffffffffffffffffffffffffffffffffffffffffffffffffffffff19161480610c455750610c44826121ce565b5b9050919050565b60606000600b6000848152602001908152602001600020805480602002602001604051908101604052809291908181526020018280548015610ce157602002820191906000526020600020906000905b82829054906101000a900467ffffffffffffffff1667ffffffffffffffff1681526020019060080190602082600701049283019260010382029150808411610c9c5790505b50505050509050610cf1816122a0565b915050919050565b606060018054610d0890615407565b80601f0160208091040260200160405190810160405280929190818152602001828054610d3490615407565b8015610d815780601f10610d5657610100808354040283529160200191610d81565b820191906000526020600020905b815481529060010190602001808311610d6457829003601f168201915b5050505050905090565b6000610d9682612362565b610dcc576040517f1a79006400000000000000000000000000000000000000000000000000000000815260040160405180910390fd5b6005600083815260200190815260200160002060009054906101000a900473ffffffffffffffffffffffffffffffffffffffff169050919050565b6000610e12826113e9565b90508073ffffffffffffffffffffffffffffffffffffffff168373ffffffffffffffffffffffffffffffffffffffff1603610e79576040517f0591db6d00000000000000000000000000000000000000000000000000000000815260040160405180910390fd5b8073ffffffffffffffffffffffffffffffffffffffff16610e986123ce565b73ffffffffffffffffffffffffffffffffffffffff1614158015610eca5750610ec881610ec36123ce565b611ebe565b155b15610f01576040517f982462b200000000000000000000000000000000000000000000000000000000815260040160405180910390fd5b610f0b83836123d6565b505050565b81610f1a8161248f565b610f2483836124d9565b505050565b6060600060086000848152602001908152602001600020805480602002602001604051908101604052809291908181526020018280548015610fbe57602002820191906000526020600020906000905b82829054906101000a900467ffffffffffffffff1667ffffffffffffffff1681526020019060080190602082600701049283019260010382029150808411610f795790505b50505050509050610fce816122a0565b915050919050565b60001515601460009054906101000a900460ff1615151461102c576040517f08c379a0000000000000000000000000000000000000000000000000000000008152600401611023906154aa565b60405180910390fd5b60006110388383612588565b90506110448382612613565b6015819080600181540180825580915050600190039060005260206000200160009091909190915055505050565b6060600960008381526020019081526020016000208054806020026020016040519081016040528092919081815260200182805480156110f957602002820191906000526020600020906000905b82829054906101000a900461ffff1661ffff16815260200190600201906020826001010492830192600103820291508084116110c05790505b50505050509050919050565b60606000601760008473ffffffffffffffffffffffffffffffffffffffff1673ffffffffffffffffffffffffffffffffffffffff16815260200190815260200160002060000160008154811061115e5761115d6154ca565b5b9060005260206000200154116111a9576040517f08c379a00000000000000000000000000000000000000000000000000000000081526004016111a090615545565b60405180910390fd5b601760008373ffffffffffffffffffffffffffffffffffffffff1673ffffffffffffffffffffffffffffffffffffffff16815260200190815260200160002060000180548060200260200160405190810160405280929190818152602001828054801561123557602002820191906000526020600020905b815481526020019060010190808311611221575b50505050509050919050565b61125261124c6123ce565b82612680565b611288576040517f2728a9d000000000000000000000000000000000000000000000000000000000815260040160405180910390fd5b611293838383612755565b505050565b6000600c60008367ffffffffffffffff1667ffffffffffffffff16815260200190815260200160002060009054906101000a900460ff169050919050565b6112de6129a9565b3373ffffffffffffffffffffffffffffffffffffffff166108fc479081150290604051600060405180830381858888f19350505050158015611324573d6000803e3d6000fd5b50565b61132f6129a9565b8060138190555050565b61135483838360405180602001604052806000815250611857565b505050565b6000601660008373ffffffffffffffffffffffffffffffffffffffff1673ffffffffffffffffffffffffffffffffffffffff168152602001908152602001600020549050919050565b60008060009054906101000a900473ffffffffffffffffffffffffffffffffffffffff16905090565b6113d36129a9565b6113dc81612a37565b50565b6000601354905090565b6000806003600084815260200190815260200160002060009054906101000a900473ffffffffffffffffffffffffffffffffffffffff169050600073ffffffffffffffffffffffffffffffffffffffff168173ffffffffffffffffffffffffffffffffffffffff1603611488576040517fdba0f85100000000000000000000000000000000000000000000000000000000815260040160405180910390fd5b80915050919050565b606060158054806020026020016040519081016040528092919081815260200182805480156114df57602002820191906000526020600020905b8154815260200190600101908083116114cb575b5050505050905090565b60008073ffffffffffffffffffffffffffffffffffffffff168273ffffffffffffffffffffffffffffffffffffffff1603611550576040517f7772286600000000000000000000000000000000000000000000000000000000815260040160405180910390fd5b600460008373ffffffffffffffffffffffffffffffffffffffff1673ffffffffffffffffffffffffffffffffffffffff168152602001908152602001600020549050919050565b816115a18161248f565b6115ab8383612a7a565b505050565b806115ba8161248f565b6115c382612d5c565b5050565b6060600f80546115d690615407565b80601f016020809104026020016040519081016040528092919081815260200182805461160290615407565b801561164f5780601f106116245761010080835404028352916020019161164f565b820191906000526020600020905b81548152906001019060200180831161163257829003601f168201915b5050505050905090565b60606002805461166890615407565b80601f016020809104026020016040519081016040528092919081815260200182805461169490615407565b80156116e15780601f106116b6576101008083540402835291602001916116e1565b820191906000526020600020905b8154815290600101906020018083116116c457829003601f168201915b5050505050905090565b60606008600083815260200190815260200160002080548060200260200160405190810160405280929190818152602001828054801561177e57602002820191906000526020600020906000905b82829054906101000a900467ffffffffffffffff1667ffffffffffffffff16815260200190600801906020826007010492830192600103820291508084116117395790505b50505050509050919050565b61179261401d565b600061179d846120c2565b83815181106117af576117ae6154ca565b5b602002602001015190506117c281611cc5565b91505092915050565b6117dd6117d66123ce565b8383612e8d565b5050565b6117e961401d565b60006117f4846116eb565b8381518110611806576118056154ca565b5b6020026020010151905061181981611cc5565b91505092915050565b61183461182d6123ce565b8383611241565b5050565b60006118426129a9565b601460009054906101000a900460ff16905090565b6118686118626123ce565b83612680565b61189e576040517f2728a9d000000000000000000000000000000000000000000000000000000000815260040160405180910390fd5b6118aa84848484612ff0565b50505050565b6060600e80548060200260200160405190810160405280929190818152602001828054801561193257602002820191906000526020600020906000905b82829054906101000a900467ffffffffffffffff1667ffffffffffffffff16815260200190600801906020826007010492830192600103820291508084116118ed5790505b5050505050905090565b60001515601460009054906101000a900460ff16151514611992576040517f08c379a0000000000000000000000000000000000000000000000000000000008152600401611989906154aa565b60405180910390fd5b61199d838383613043565b505050565b60606119af826000613315565b9050919050565b8160006119c282611359565b14611a02576040517f08c379a00000000000000000000000000000000000000000000000000000000081526004016119f9906155b1565b60405180910390fd5b60001515601460009054906101000a900460ff16151514611a58576040517f08c379a0000000000000000000000000000000000000000000000000000000008152600401611a4f906154aa565b60405180910390fd5b601354341015611a9d576040517f08c379a0000000000000000000000000000000000000000000000000000000008152600401611a9490615643565b60405180910390fd5b6000611aa98484612588565b9050611ab584826134d1565b50505050565b6060600060086000868152602001908152602001600020805480602002602001604051908101604052809291908181526020018280548015611b5057602002820191906000526020600020906000905b82829054906101000a900467ffffffffffffffff1667ffffffffffffffff1681526020019060080190602082600701049283019260010382029150808411611b0b5790505b5050505050905060006008600087815260200190815260200160002080549050905060005b81811015611bdb576000611ba3848381518110611b9557611b946154ca565b5b602002602001015188611fd3565b90508580519060200120818051906020012003611bcf57611bc48883613315565b945050505050611c6c565b81600101915050611b75565b50600f8054611be990615407565b80601f0160208091040260200160405190810160405280929190818152602001828054611c1590615407565b8015611c625780601f10611c3757610100808354040283529160200191611c62565b820191906000526020600020905b815481529060010190602001808311611c4557829003601f168201915b5050505050925050505b9392505050565b6060611c7f8383613315565b905092915050565b81611c918161248f565b611c9b8383613519565b505050565b611ca86129a9565b80601460006101000a81548160ff02191690831515021790555050565b611ccd61401d565b6000601060008467ffffffffffffffff1667ffffffffffffffff1681526020019081526020016000206040518060600160405290816000820160009054906101000a900467ffffffffffffffff1667ffffffffffffffff1667ffffffffffffffff168152602001600182018054611d4390615407565b80601f0160208091040260200160405190810160405280929190818152602001828054611d6f90615407565b8015611dbc5780601f10611d9157610100808354040283529160200191611dbc565b820191906000526020600020905b815481529060010190602001808311611d9f57829003601f168201915b5050505050815260200160028201805480602002602001604051908101604052809291908181526020018280548015611e5857602002820191906000526020600020906000905b82829054906101000a90046fffffffffffffffffffffffffffffffff166fffffffffffffffffffffffffffffffff1681526020019060100190602082600f01049283019260010382029150808411611e035790505b5050505050815250509050600067ffffffffffffffff16816000015167ffffffffffffffff1603611eb5576040517f48e2e83700000000000000000000000000000000000000000000000000000000815260040160405180910390fd5b80915050919050565b6000600660008473ffffffffffffffffffffffffffffffffffffffff1673ffffffffffffffffffffffffffffffffffffffff16815260200190815260200160002060008373ffffffffffffffffffffffffffffffffffffffff1673ffffffffffffffffffffffffffffffffffffffff16815260200190815260200160002060009054906101000a900460ff16905092915050565b60001515601460009054906101000a900460ff16151514611fa8576040517f08c379a0000000000000000000000000000000000000000000000000000000008152600401611f9f906154aa565b60405180910390fd5b611fb38383836136bd565b611fbd60126121b8565b505050565b6000611fce60126138e0565b905090565b6060600d60008467ffffffffffffffff1667ffffffffffffffff1681526020019081526020016000206000836fffffffffffffffffffffffffffffffff166fffffffffffffffffffffffffffffffff168152602001908152602001600020805461203c90615407565b80601f016020809104026020016040519081016040528092919081815260200182805461206890615407565b80156120b55780601f1061208a576101008083540402835291602001916120b5565b820191906000526020600020905b81548152906001019060200180831161209857829003601f168201915b5050505050905092915050565b6060600b600083815260200190815260200160002080548060200260200160405190810160405280929190818152602001828054801561215557602002820191906000526020600020906000905b82829054906101000a900467ffffffffffffffff1667ffffffffffffffff16815260200190600801906020826007010492830192600103820291508084116121105790505b50505050509050919050565b60006007600084815260200190815260200160002060008367ffffffffffffffff1667ffffffffffffffff16815260200190815260200160002060009054906101000a900467ffffffffffffffff16905092915050565b6001816000016000828254019250508190555050565b60007f80ac58cd000000000000000000000000000000000000000000000000000000007bffffffffffffffffffffffffffffffffffffffffffffffffffffffff1916827bffffffffffffffffffffffffffffffffffffffffffffffffffffffff1916148061229957507f01ffc9a7000000000000000000000000000000000000000000000000000000007bffffffffffffffffffffffffffffffffffffffffffffffffffffffff1916827bffffffffffffffffffffffffffffffffffffffffffffffffffffffff1916145b9050919050565b606060008251905060008167ffffffffffffffff8111156122c4576122c3614747565b5b6040519080825280602002602001820160405280156122fd57816020015b6122ea61401d565b8152602001906001900390816122e25790505b50905060005b828110156123575761232e858281518110612321576123206154ca565b5b6020026020010151611cc5565b828281518110612341576123406154ca565b5b6020026020010181905250806001019050612303565b508092505050919050565b60008073ffffffffffffffffffffffffffffffffffffffff166003600084815260200190815260200160002060009054906101000a900473ffffffffffffffffffffffffffffffffffffffff1673ffffffffffffffffffffffffffffffffffffffff1614159050919050565b600033905090565b816005600083815260200190815260200160002060006101000a81548173ffffffffffffffffffffffffffffffffffffffff021916908373ffffffffffffffffffffffffffffffffffffffff160217905550808273ffffffffffffffffffffffffffffffffffffffff16612449836113e9565b73ffffffffffffffffffffffffffffffffffffffff167f8c5be1e5ebec7d5bd14f71427d1e84f3dd0314c0f7b2291e5b200ac8c7c3b92560405160405180910390a45050565b6124a061249a6123ce565b82612680565b6124d6576040517f2728a9d000000000000000000000000000000000000000000000000000000000815260040160405180910390fd5b50565b6000815190506008600084815260200190815260200160002080549050811461252e576040517f6b037c3a00000000000000000000000000000000000000000000000000000000815260040160405180910390fd5b81600960008581526020019081526020016000209080519060200190612555929190614048565b50827f50a12ecfcaf26b91454fd23edbcf04185b68d6e8c7edc4e35d14392889cdf79560405160405180910390a2505050565b600061259d8361259860116138e0565b6138ee565b606060006125b36125ae60126138e0565b61390c565b90506125c0818584611f52565b6125d56125cd60116138e0565b82600061193c565b6125e96125e260116138e0565b6000611597565b6125f360116121b8565b60016125ff60116138e0565b6126099190615692565b9250505092915050565b601760008373ffffffffffffffffffffffffffffffffffffffff1673ffffffffffffffffffffffffffffffffffffffff1681526020019081526020016000206000018190806001815401808255809150506001900390600052602060002001600090919091909150555050565b600061268b82612362565b6126c1576040517fdba0f85100000000000000000000000000000000000000000000000000000000815260040160405180910390fd5b60006126cc836113e9565b90508073ffffffffffffffffffffffffffffffffffffffff168473ffffffffffffffffffffffffffffffffffffffff16148061270e575061270d8185611ebe565b5b8061274c57508373ffffffffffffffffffffffffffffffffffffffff1661273484610d8b565b73ffffffffffffffffffffffffffffffffffffffff16145b91505092915050565b8273ffffffffffffffffffffffffffffffffffffffff16612775826113e9565b73ffffffffffffffffffffffffffffffffffffffff16146127c2576040517fe146af6f00000000000000000000000000000000000000000000000000000000815260040160405180910390fd5b600073ffffffffffffffffffffffffffffffffffffffff168273ffffffffffffffffffffffffffffffffffffffff1603612828576040517fe3d91bfc00000000000000000000000000000000000000000000000000000000815260040160405180910390fd5b612833838383613916565b61283e6000826123d6565b6001600460008573ffffffffffffffffffffffffffffffffffffffff1673ffffffffffffffffffffffffffffffffffffffff168152602001908152602001600020600082825461288e9190615692565b925050819055506001600460008473ffffffffffffffffffffffffffffffffffffffff1673ffffffffffffffffffffffffffffffffffffffff16815260200190815260200160002060008282546128e591906156c6565b92505081905550816003600083815260200190815260200160002060006101000a81548173ffffffffffffffffffffffffffffffffffffffff021916908373ffffffffffffffffffffffffffffffffffffffff160217905550808273ffffffffffffffffffffffffffffffffffffffff168473ffffffffffffffffffffffffffffffffffffffff167fddf252ad1be2c89b69c2b068fc378daa952ba7f163c4a11628f55a4df523b3ef60405160405180910390a46129a483838361391b565b505050565b60008054906101000a900473ffffffffffffffffffffffffffffffffffffffff1673ffffffffffffffffffffffffffffffffffffffff166129e86123ce565b73ffffffffffffffffffffffffffffffffffffffff1614612a35576040517f8251e42200000000000000000000000000000000000000000000000000000000815260040160405180910390fd5b565b806000806101000a81548173ffffffffffffffffffffffffffffffffffffffff021916908373ffffffffffffffffffffffffffffffffffffffff16021790555050565b600b6000838152602001908152602001600020805490508110612ac9576040517f0757d52100000000000000000000000000000000000000000000000000000000815260040160405180910390fd5b6000600b60008481526020019081526020016000208281548110612af057612aef6154ca565b5b90600052602060002090600491828204019190066008029054906101000a900467ffffffffffffffff169050612b4182600b600086815260200190815260200160002061392090919063ffffffff16565b60006007600085815260200190815260200160002060008367ffffffffffffffff1667ffffffffffffffff16815260200190815260200160002060009054906101000a900467ffffffffffffffff169050600067ffffffffffffffff168167ffffffffffffffff1614612c5b57612bd38160086000878152602001908152602001600020613a1490919063ffffffff16565b837f0c3ab9436ca1f55688a28969e7eac425945dded8cc4acf7f4e738cfa6fa1657c82604051612c0391906153bd565b60405180910390a26007600085815260200190815260200160002060008367ffffffffffffffff1667ffffffffffffffff16815260200190815260200160002060006101000a81549067ffffffffffffffff02191690555b600860008581526020019081526020016000208290806001815401808255809150506001900390600052602060002090600491828204019190066008029091909190916101000a81548167ffffffffffffffff021916908367ffffffffffffffff16021790555060096000858152602001908152602001600020600090806001815401808255809150506001900390600052602060002090601091828204019190066002029091909190916101000a81548161ffff021916908361ffff160217905550837f51e9958189f528b912f96508d6a4b68583858166eda14d580dfbd24e9a79dfdb83604051612d4e91906153bd565b60405180910390a250505050565b6000600b600083815260200190815260200160002080549050905060005b81811015612e30576000600b60008581526020019081526020016000208281548110612da957612da86154ca565b5b90600052602060002090600491828204019190066008029054906101000a900467ffffffffffffffff1690506007600085815260200190815260200160002060008267ffffffffffffffff1667ffffffffffffffff16815260200190815260200160002060006101000a81549067ffffffffffffffff021916905581600101915050612d7a565b50600b60008381526020019081526020016000206000612e5091906140f2565b817f8d0cdca57de6b2fb4babd8b68c83db0b0981610d338eb68eea1f4b1e1d78dc1c6000604051612e8191906153bd565b60405180910390a25050565b8173ffffffffffffffffffffffffffffffffffffffff168373ffffffffffffffffffffffffffffffffffffffff1603612ef2576040517f2dee66e400000000000000000000000000000000000000000000000000000000815260040160405180910390fd5b80600660008573ffffffffffffffffffffffffffffffffffffffff1673ffffffffffffffffffffffffffffffffffffffff16815260200190815260200160002060008473ffffffffffffffffffffffffffffffffffffffff1673ffffffffffffffffffffffffffffffffffffffff16815260200190815260200160002060006101000a81548160ff0219169083151502179055508173ffffffffffffffffffffffffffffffffffffffff168373ffffffffffffffffffffffffffffffffffffffff167f17307eab39ab6107e8899845ad3d59bd9653f200f220920489ca2b5937696c3183604051612fe391906142bf565b60405180910390a3505050565b612ffb848484612755565b61300784848484613b03565b61303d576040517fbcb5663700000000000000000000000000000000000000000000000000000000815260040160405180910390fd5b50505050565b600a600084815260200190815260200160002060008367ffffffffffffffff1667ffffffffffffffff16815260200190815260200160002060009054906101000a900460ff16156130c0576040517f3348dd1d00000000000000000000000000000000000000000000000000000000815260040160405180910390fd5b600067ffffffffffffffff166130d583611cc5565b6000015167ffffffffffffffff160361311a576040517f0f8f451500000000000000000000000000000000000000000000000000000000815260040160405180910390fd5b6080600b6000858152602001908152602001600020805490501061316a576040517fdfaea09b00000000000000000000000000000000000000000000000000000000815260040160405180910390fd5b6001600a600085815260200190815260200160002060008467ffffffffffffffff1667ffffffffffffffff16815260200190815260200160002060006101000a81548160ff021916908315150217905550600b60008481526020019081526020016000208290806001815401808255809150506001900390600052602060002090600491828204019190066008029091909190916101000a81548167ffffffffffffffff021916908367ffffffffffffffff160217905550600067ffffffffffffffff168167ffffffffffffffff16146132d857806007600085815260200190815260200160002060008467ffffffffffffffff1667ffffffffffffffff16815260200190815260200160002060006101000a81548167ffffffffffffffff021916908367ffffffffffffffff160217905550827fe76caab2912f68cd628bc085e006c86b8a478d13be698638b0c533030d120b4e83836040516132cf92919061571c565b60405180910390a25b827ffc4d0a03f3026d7ce3427493c9289ea9768a6edd425e854cea7600d244ecc2c38360405161330891906153bd565b60405180910390a2505050565b6060816008600085815260200190815260200160002080549050111561343d57600060086000858152602001908152602001600020838154811061335c5761335b6154ca565b5b90600052602060002090600491828204019190066008029054906101000a900467ffffffffffffffff1690506060600061339583611cc5565b9050600c60008467ffffffffffffffff1667ffffffffffffffff16815260200190815260200160002060009054906101000a900460ff166133dc5780602001519150613432565b6000816020015190506000815111613403576040518060200160405280600081525061342e565b8061340d88613c81565b60405160200161341e929190615781565b6040516020818303038152906040525b9250505b8193505050506134cb565b600f805461344a90615407565b80601f016020809104026020016040519081016040528092919081815260200182805461347690615407565b80156134c35780601f10613498576101008083540402835291602001916134c3565b820191906000526020600020905b8154815290600101906020018083116134a657829003601f168201915b505050505090505b92915050565b80601660008473ffffffffffffffffffffffffffffffffffffffff1673ffffffffffffffffffffffffffffffffffffffff168152602001908152602001600020819055505050565b600b6000838152602001908152602001600020805490508110613568576040517f0757d52100000000000000000000000000000000000000000000000000000000815260040160405180910390fd5b6000600b6000848152602001908152602001600020828154811061358f5761358e6154ca565b5b90600052602060002090600491828204019190066008029054906101000a900467ffffffffffffffff1690506135e082600b600086815260200190815260200160002061392090919063ffffffff16565b6000600a600085815260200190815260200160002060008367ffffffffffffffff1667ffffffffffffffff16815260200190815260200160002060006101000a81548160ff0219169083151502179055506007600084815260200190815260200160002060008267ffffffffffffffff1667ffffffffffffffff16815260200190815260200160002060006101000a81549067ffffffffffffffff0219169055827f8d0cdca57de6b2fb4babd8b68c83db0b0981610d338eb68eea1f4b1e1d78dc1c826040516136b091906153bd565b60405180910390a2505050565b600067ffffffffffffffff168367ffffffffffffffff160361370b576040517f280d806300000000000000000000000000000000000000000000000000000000815260040160405180910390fd5b600067ffffffffffffffff16601060008567ffffffffffffffff1667ffffffffffffffff16815260200190815260200160002060000160009054906101000a900467ffffffffffffffff1667ffffffffffffffff1614613797576040517f3348dd1d00000000000000000000000000000000000000000000000000000000815260040160405180910390fd5b600060405180606001604052808567ffffffffffffffff16815260200184815260200183815250905080601060008667ffffffffffffffff1667ffffffffffffffff16815260200190815260200160002060008201518160000160006101000a81548167ffffffffffffffff021916908367ffffffffffffffff160217905550602082015181600101908161382c9190615951565b50604082015181600201908051906020019061384992919061411a565b50905050600e8490806001815401808255809150506001900390600052602060002090600491828204019190066008029091909190916101000a81548167ffffffffffffffff021916908367ffffffffffffffff1602179055507f8a5ccfca4023cda4a0a59a1bb73783f6b3ba77465537d0c8f2bef5eb2511552a846040516138d291906153bd565b60405180910390a150505050565b600081600001549050919050565b613908828260405180602001604052806000815250613de1565b5050565b6000819050919050565b505050565b505050565b8180549050811061393057600080fd5b81600183805490506139429190615692565b81548110613953576139526154ca565b5b90600052602060002090600491828204019190066008029054906101000a900467ffffffffffffffff168282815481106139905761398f6154ca565b5b90600052602060002090600491828204019190066008026101000a81548167ffffffffffffffff021916908367ffffffffffffffff160217905550818054806139dc576139db615a23565b5b60019003818190600052602060002090600491828204019190066008026101000a81549067ffffffffffffffff021916905590555050565b600082805480602002602001604051908101604052809291908181526020018280548015613a9557602002820191906000526020600020906000905b82829054906101000a900467ffffffffffffffff1667ffffffffffffffff1681526020019060080190602082600701049283019260010382029150808411613a505790505b5050505050905060008151905060005b81811015613afc578367ffffffffffffffff16838281518110613acb57613aca6154ca565b5b602002602001015167ffffffffffffffff1603613af157613aec8582613920565b613afc565b806001019050613aa5565b5050505050565b6000613b248473ffffffffffffffffffffffffffffffffffffffff16613e33565b15613c74578373ffffffffffffffffffffffffffffffffffffffff1663150b7a02613b4d6123ce565b8786866040518563ffffffff1660e01b8152600401613b6f9493929190615a52565b6020604051808303816000875af1925050508015613bab57506040513d601f19601f82011682018060405250810190613ba89190615ab3565b60015b613c24573d8060008114613bdb576040519150601f19603f3d011682016040523d82523d6000602084013e613be0565b606091505b506000815103613c1c576040517fbcb5663700000000000000000000000000000000000000000000000000000000815260040160405180910390fd5b805181602001fd5b63150b7a0260e01b7bffffffffffffffffffffffffffffffffffffffffffffffffffffffff1916817bffffffffffffffffffffffffffffffffffffffffffffffffffffffff191614915050613c79565b600190505b949350505050565b606060008203613cc8576040518060400160405280600181526020017f30000000000000000000000000000000000000000000000000000000000000008152509050613ddc565b600082905060005b60008214613cfa578080613ce390615ae0565b915050600a82613cf39190615b57565b9150613cd0565b60008167ffffffffffffffff811115613d1657613d15614747565b5b6040519080825280601f01601f191660200182016040528015613d485781602001600182028036833780820191505090505b5090505b60008514613dd557600182613d619190615692565b9150600a85613d709190615b88565b6030613d7c91906156c6565b60f81b818381518110613d9257613d916154ca565b5b60200101907effffffffffffffffffffffffffffffffffffffffffffffffffffffffffffff1916908160001a905350600a85613dce9190615b57565b9450613d4c565b8093505050505b919050565b613deb8383613e56565b613df86000848484613b03565b613e2e576040517fbcb5663700000000000000000000000000000000000000000000000000000000815260040160405180910390fd5b505050565b6000808273ffffffffffffffffffffffffffffffffffffffff163b119050919050565b600073ffffffffffffffffffffffffffffffffffffffff168273ffffffffffffffffffffffffffffffffffffffff1603613ebc576040517f25bd6bd300000000000000000000000000000000000000000000000000000000815260040160405180910390fd5b613ec581612362565b15613efc576040517fc5a8d37100000000000000000000000000000000000000000000000000000000815260040160405180910390fd5b613f0860008383613916565b6001600460008473ffffffffffffffffffffffffffffffffffffffff1673ffffffffffffffffffffffffffffffffffffffff1681526020019081526020016000206000828254613f5891906156c6565b92505081905550816003600083815260200190815260200160002060006101000a81548173ffffffffffffffffffffffffffffffffffffffff021916908373ffffffffffffffffffffffffffffffffffffffff160217905550808273ffffffffffffffffffffffffffffffffffffffff16600073ffffffffffffffffffffffffffffffffffffffff167fddf252ad1be2c89b69c2b068fc378daa952ba7f163c4a11628f55a4df523b3ef60405160405180910390a46140196000838361391b565b5050565b6040518060600160405280600067ffffffffffffffff16815260200160608152602001606081525090565b82805482825590600052602060002090600f016010900481019282156140e15791602002820160005b838211156140b157835183826101000a81548161ffff021916908361ffff1602179055509260200192600201602081600101049283019260010302614071565b80156140df5782816101000a81549061ffff02191690556002016020816001010492830192600103026140b1565b505b5090506140ee91906141ee565b5090565b50805460008255600301600490049060005260206000209081019061411791906141ee565b50565b828054828255906000526020600020906001016002900481019282156141dd5791602002820160005b8382111561419f57835183826101000a8154816fffffffffffffffffffffffffffffffff02191690836fffffffffffffffffffffffffffffffff1602179055509260200192601001602081600f01049283019260010302614143565b80156141db5782816101000a8154906fffffffffffffffffffffffffffffffff0219169055601001602081600f0104928301926001030261419f565b505b5090506141ea91906141ee565b5090565b5b808211156142075760008160009055506001016141ef565b5090565b6000604051905090565b600080fd5b600080fd5b60007fffffffff0000000000000000000000000000000000000000000000000000000082169050919050565b6142548161421f565b811461425f57600080fd5b50565b6000813590506142718161424b565b92915050565b60006020828403121561428d5761428c614215565b5b600061429b84828501614262565b91505092915050565b60008115159050919050565b6142b9816142a4565b82525050565b60006020820190506142d460008301846142b0565b92915050565b6000819050919050565b6142ed816142da565b81146142f857600080fd5b50565b60008135905061430a816142e4565b92915050565b60006020828403121561432657614325614215565b5b6000614334848285016142fb565b91505092915050565b600081519050919050565b600082825260208201905092915050565b6000819050602082019050919050565b600067ffffffffffffffff82169050919050565b61438681614369565b82525050565b600081519050919050565b600082825260208201905092915050565b60005b838110156143c65780820151818401526020810190506143ab565b838111156143d5576000848401525b50505050565b6000601f19601f8301169050919050565b60006143f78261438c565b6144018185614397565b93506144118185602086016143a8565b61441a816143db565b840191505092915050565b600081519050919050565b600082825260208201905092915050565b6000819050602082019050919050565b60006fffffffffffffffffffffffffffffffff82169050919050565b61447681614451565b82525050565b6000614488838361446d565b60208301905092915050565b6000602082019050919050565b60006144ac82614425565b6144b68185614430565b93506144c183614441565b8060005b838110156144f25781516144d9888261447c565b97506144e483614494565b9250506001810190506144c5565b5085935050505092915050565b6000606083016000830151614517600086018261437d565b506020830151848203602086015261452f82826143ec565b9150506040830151848203604086015261454982826144a1565b9150508091505092915050565b600061456283836144ff565b905092915050565b6000602082019050919050565b60006145828261433d565b61458c8185614348565b93508360208202850161459e85614359565b8060005b858110156145da57848403895281516145bb8582614556565b94506145c68361456a565b925060208a019950506001810190506145a2565b50829750879550505050505092915050565b600060208201905081810360008301526146068184614577565b905092915050565b600082825260208201905092915050565b600061462a8261438c565b614634818561460e565b93506146448185602086016143a8565b61464d816143db565b840191505092915050565b60006020820190508181036000830152614672818461461f565b905092915050565b600073ffffffffffffffffffffffffffffffffffffffff82169050919050565b60006146a58261467a565b9050919050565b6146b58161469a565b82525050565b60006020820190506146d060008301846146ac565b92915050565b6146df8161469a565b81146146ea57600080fd5b50565b6000813590506146fc816146d6565b92915050565b6000806040838503121561471957614718614215565b5b6000614727858286016146ed565b9250506020614738858286016142fb565b9150509250929050565b600080fd5b7f4e487b7100000000000000000000000000000000000000000000000000000000600052604160045260246000fd5b61477f826143db565b810181811067ffffffffffffffff8211171561479e5761479d614747565b5b80604052505050565b60006147b161420b565b90506147bd8282614776565b919050565b600067ffffffffffffffff8211156147dd576147dc614747565b5b602082029050602081019050919050565b600080fd5b600061ffff82169050919050565b61480a816147f3565b811461481557600080fd5b50565b60008135905061482781614801565b92915050565b600061484061483b846147c2565b6147a7565b90508083825260208201905060208402830185811115614863576148626147ee565b5b835b8181101561488c57806148788882614818565b845260208401935050602081019050614865565b5050509392505050565b600082601f8301126148ab576148aa614742565b5b81356148bb84826020860161482d565b91505092915050565b600080604083850312156148db576148da614215565b5b60006148e9858286016142fb565b925050602083013567ffffffffffffffff81111561490a5761490961421a565b5b61491685828601614896565b9150509250929050565b600080fd5b600067ffffffffffffffff8211156149405761493f614747565b5b614949826143db565b9050602081019050919050565b82818337600083830152505050565b600061497861497384614925565b6147a7565b90508281526020810184848401111561499457614993614920565b5b61499f848285614956565b509392505050565b600082601f8301126149bc576149bb614742565b5b81356149cc848260208601614965565b91505092915050565b600080604083850312156149ec576149eb614215565b5b60006149fa858286016146ed565b925050602083013567ffffffffffffffff811115614a1b57614a1a61421a565b5b614a27858286016149a7565b9150509250929050565b600081519050919050565b600082825260208201905092915050565b6000819050602082019050919050565b614a66816147f3565b82525050565b6000614a788383614a5d565b60208301905092915050565b6000602082019050919050565b6000614a9c82614a31565b614aa68185614a3c565b9350614ab183614a4d565b8060005b83811015614ae2578151614ac98882614a6c565b9750614ad483614a84565b925050600181019050614ab5565b5085935050505092915050565b60006020820190508181036000830152614b098184614a91565b905092915050565b600060208284031215614b2757614b26614215565b5b6000614b35848285016146ed565b91505092915050565b600081519050919050565b600082825260208201905092915050565b6000819050602082019050919050565b614b73816142da565b82525050565b6000614b858383614b6a565b60208301905092915050565b6000602082019050919050565b6000614ba982614b3e565b614bb38185614b49565b9350614bbe83614b5a565b8060005b83811015614bef578151614bd68882614b79565b9750614be183614b91565b925050600181019050614bc2565b5085935050505092915050565b60006020820190508181036000830152614c168184614b9e565b905092915050565b600080600060608486031215614c3757614c36614215565b5b6000614c45868287016146ed565b9350506020614c56868287016146ed565b9250506040614c67868287016142fb565b9150509250925092565b614c7a81614369565b8114614c8557600080fd5b50565b600081359050614c9781614c71565b92915050565b600060208284031215614cb357614cb2614215565b5b6000614cc184828501614c88565b91505092915050565b614cd3816142da565b82525050565b6000602082019050614cee6000830184614cca565b92915050565b60008060408385031215614d0b57614d0a614215565b5b6000614d19858286016142fb565b9250506020614d2a858286016142fb565b9150509250929050565b600081519050919050565b600082825260208201905092915050565b6000819050602082019050919050565b6000614d6c838361437d565b60208301905092915050565b6000602082019050919050565b6000614d9082614d34565b614d9a8185614d3f565b9350614da583614d50565b8060005b83811015614dd6578151614dbd8882614d60565b9750614dc883614d78565b925050600181019050614da9565b5085935050505092915050565b60006020820190508181036000830152614dfd8184614d85565b905092915050565b6000606083016000830151614e1d600086018261437d565b5060208301518482036020860152614e3582826143ec565b91505060408301518482036040860152614e4f82826144a1565b9150508091505092915050565b60006020820190508181036000830152614e768184614e05565b905092915050565b614e87816142a4565b8114614e9257600080fd5b50565b600081359050614ea481614e7e565b92915050565b60008060408385031215614ec157614ec0614215565b5b6000614ecf858286016146ed565b9250506020614ee085828601614e95565b9150509250929050565b600067ffffffffffffffff821115614f0557614f04614747565b5b614f0e826143db565b9050602081019050919050565b6000614f2e614f2984614eea565b6147a7565b905082815260208101848484011115614f4a57614f49614920565b5b614f55848285614956565b509392505050565b600082601f830112614f7257614f71614742565b5b8135614f82848260208601614f1b565b91505092915050565b60008060008060808587031215614fa557614fa4614215565b5b6000614fb3878288016146ed565b9450506020614fc4878288016146ed565b9350506040614fd5878288016142fb565b925050606085013567ffffffffffffffff811115614ff657614ff561421a565b5b61500287828801614f5d565b91505092959194509250565b60008060006060848603121561502757615026614215565b5b6000615035868287016142fb565b935050602061504686828701614c88565b925050604061505786828701614c88565b9150509250925092565b61506a81614451565b811461507557600080fd5b50565b60008135905061508781615061565b92915050565b6000806000606084860312156150a6576150a5614215565b5b60006150b4868287016142fb565b93505060206150c586828701615078565b925050604084013567ffffffffffffffff8111156150e6576150e561421a565b5b6150f286828701614f5d565b9150509250925092565b60006020828403121561511257615111614215565b5b600061512084828501614e95565b91505092915050565b600080604083850312156151405761513f614215565b5b600061514e858286016146ed565b925050602061515f858286016146ed565b9150509250929050565b600067ffffffffffffffff82111561518457615183614747565b5b602082029050602081019050919050565b60006151a86151a384615169565b6147a7565b905080838252602082019050602084028301858111156151cb576151ca6147ee565b5b835b818110156151f457806151e08882615078565b8452602084019350506020810190506151cd565b5050509392505050565b600082601f83011261521357615212614742565b5b8135615223848260208601615195565b91505092915050565b60008060006060848603121561524557615244614215565b5b600061525386828701614c88565b935050602084013567ffffffffffffffff8111156152745761527361421a565b5b615280868287016149a7565b925050604084013567ffffffffffffffff8111156152a1576152a061421a565b5b6152ad868287016151fe565b9150509250925092565b600080604083850312156152ce576152cd614215565b5b60006152dc85828601614c88565b92505060206152ed85828601615078565b9150509250929050565b600081519050919050565b600082825260208201905092915050565b600061531e826152f7565b6153288185615302565b93506153388185602086016143a8565b615341816143db565b840191505092915050565b600060208201905081810360008301526153668184615313565b905092915050565b6000806040838503121561538557615384614215565b5b6000615393858286016142fb565b92505060206153a485828601614c88565b9150509250929050565b6153b781614369565b82525050565b60006020820190506153d260008301846153ae565b92915050565b7f4e487b7100000000000000000000000000000000000000000000000000000000600052602260045260246000fd5b6000600282049050600182168061541f57607f821691505b602082108103615432576154316153d8565b5b50919050565b7f6e6f206d696e74696e67206973207065726d697474656420617420746869732060008201527f74696d6500000000000000000000000000000000000000000000000000000000602082015250565b600061549460248361460e565b915061549f82615438565b604082019050919050565b600060208201905081810360008301526154c381615487565b9050919050565b7f4e487b7100000000000000000000000000000000000000000000000000000000600052603260045260246000fd5b7f7573657220686173206e6f74206d696e746564206c6574746572626f78000000600082015250565b600061552f601d8361460e565b915061553a826154f9565b602082019050919050565b6000602082019050818103600083015261555e81615522565b9050919050565b7f4f6e6c79206f6e65207374616d70207065722061646472657373000000000000600082015250565b600061559b601a8361460e565b91506155a682615565565b602082019050919050565b600060208201905081810360008301526155ca8161558e565b9050919050565b7f496e73756666696369656e742066756e64732073656e7420776974682074726160008201527f6e73616374696f6e000000000000000000000000000000000000000000000000602082015250565b600061562d60288361460e565b9150615638826155d1565b604082019050919050565b6000602082019050818103600083015261565c81615620565b9050919050565b7f4e487b7100000000000000000000000000000000000000000000000000000000600052601160045260246000fd5b600061569d826142da565b91506156a8836142da565b9250828210156156bb576156ba615663565b5b828203905092915050565b60006156d1826142da565b91506156dc836142da565b9250827fffffffffffffffffffffffffffffffffffffffffffffffffffffffffffffffff0382111561571157615710615663565b5b828201905092915050565b600060408201905061573160008301856153ae565b61573e60208301846153ae565b9392505050565b600081905092915050565b600061575b8261438c565b6157658185615745565b93506157758185602086016143a8565b80840191505092915050565b600061578d8285615750565b91506157998284615750565b91508190509392505050565b60008190508160005260206000209050919050565b60006020601f8301049050919050565b600082821b905092915050565b6000600883026158077fffffffffffffffffffffffffffffffffffffffffffffffffffffffffffffffff826157ca565b61581186836157ca565b95508019841693508086168417925050509392505050565b6000819050919050565b600061584e615849615844846142da565b615829565b6142da565b9050919050565b6000819050919050565b61586883615833565b61587c61587482615855565b8484546157d7565b825550505050565b600090565b615891615884565b61589c81848461585f565b505050565b5b818110156158c0576158b5600082615889565b6001810190506158a2565b5050565b601f821115615905576158d6816157a5565b6158df846157ba565b810160208510156158ee578190505b6159026158fa856157ba565b8301826158a1565b50505b505050565b600082821c905092915050565b60006159286000198460080261590a565b1980831691505092915050565b60006159418383615917565b9150826002028217905092915050565b61595a8261438c565b67ffffffffffffffff81111561597357615972614747565b5b61597d8254615407565b6159888282856158c4565b600060209050601f8311600181146159bb57600084156159a9578287015190505b6159b38582615935565b865550615a1b565b601f1984166159c9866157a5565b60005b828110156159f1578489015182556001820191506020850194506020810190506159cc565b86831015615a0e5784890151615a0a601f891682615917565b8355505b6001600288020188555050505b505050505050565b7f4e487b7100000000000000000000000000000000000000000000000000000000600052603160045260246000fd5b6000608082019050615a6760008301876146ac565b615a7460208301866146ac565b615a816040830185614cca565b8181036060830152615a938184615313565b905095945050505050565b600081519050615aad8161424b565b92915050565b600060208284031215615ac957615ac8614215565b5b6000615ad784828501615a9e565b91505092915050565b6000615aeb826142da565b91507fffffffffffffffffffffffffffffffffffffffffffffffffffffffffffffffff8203615b1d57615b1c615663565b5b600182019050919050565b7f4e487b7100000000000000000000000000000000000000000000000000000000600052601260045260246000fd5b6000615b62826142da565b9150615b6d836142da565b925082615b7d57615b7c615b28565b5b828204905092915050565b6000615b93826142da565b9150615b9e836142da565b925082615bae57615bad615b28565b5b82820690509291505056fea2646970667358221220b50dd5ac7f274cbc272344e9b567f529067e23a872aefd40887538959c3e915b64736f6c634300080f0033",
  "linkReferences": {},
  "deployedLinkReferences": {}
}