{
  "_format": "hh-sol-artifact-1",
  "contractName": "LetterBoxing",
  "sourceName": "contracts/LetterBoxing.sol",
  "abi": [
    {
      "inputs": [],
      "stateMutability": "nonpayable",
      "type": "constructor"
    },
    {
      "inputs": [],
      "name": "ERC721AddressZeroIsNotaValidOwner",
      "type": "error"
    },
    {
      "inputs": [],
      "name": "ERC721ApprovalToCurrentOwner",
      "type": "error"
    },
    {
      "inputs": [],
      "name": "ERC721ApproveCallerIsNotOwnerNorApprovedForAll",
      "type": "error"
    },
    {
      "inputs": [],
      "name": "ERC721ApproveToCaller",
      "type": "error"
    },
    {
      "inputs": [],
      "name": "ERC721ApprovedQueryForNonexistentToken",
      "type": "error"
    },
    {
      "inputs": [],
      "name": "ERC721MintToTheZeroAddress",
      "type": "error"
    },
    {
      "inputs": [],
      "name": "ERC721NotApprovedOrOwner",
      "type": "error"
    },
    {
      "inputs": [],
      "name": "ERC721OwnerQueryForNonexistentToken",
      "type": "error"
    },
    {
      "inputs": [],
      "name": "ERC721TokenAlreadyMinted",
      "type": "error"
    },
    {
      "inputs": [],
      "name": "ERC721TransferFromIncorrectOwner",
      "type": "error"
    },
    {
      "inputs": [],
      "name": "ERC721TransferToNonReceiverImplementer",
      "type": "error"
    },
    {
      "inputs": [],
      "name": "ERC721TransferToTheZeroAddress",
      "type": "error"
    },
    {
      "inputs": [],
      "name": "RMRKBadPriorityListLength",
      "type": "error"
    },
    {
      "inputs": [],
      "name": "RMRKIndexOutOfRange",
      "type": "error"
    },
    {
      "inputs": [],
      "name": "RMRKMaxPendingResourcesReached",
      "type": "error"
    },
    {
      "inputs": [],
      "name": "RMRKNoResourceMatchingId",
      "type": "error"
    },
    {
      "inputs": [],
      "name": "RMRKOnlyIssuer",
      "type": "error"
    },
    {
      "inputs": [],
      "name": "RMRKResourceAlreadyExists",
      "type": "error"
    },
    {
      "inputs": [],
      "name": "RMRKResourceNotFoundInStorage",
      "type": "error"
    },
    {
      "inputs": [],
      "name": "RMRKWriteToZero",
      "type": "error"
    },
    {
      "anonymous": false,
      "inputs": [
        {
          "indexed": true,
          "internalType": "address",
          "name": "owner",
          "type": "address"
        },
        {
          "indexed": true,
          "internalType": "address",
          "name": "approved",
          "type": "address"
        },
        {
          "indexed": true,
          "internalType": "uint256",
          "name": "tokenId",
          "type": "uint256"
        }
      ],
      "name": "Approval",
      "type": "event"
    },
    {
      "anonymous": false,
      "inputs": [
        {
          "indexed": true,
          "internalType": "address",
          "name": "owner",
          "type": "address"
        },
        {
          "indexed": true,
          "internalType": "address",
          "name": "operator",
          "type": "address"
        },
        {
          "indexed": false,
          "internalType": "bool",
          "name": "approved",
          "type": "bool"
        }
      ],
      "name": "ApprovalForAll",
      "type": "event"
    },
    {
      "anonymous": false,
      "inputs": [
        {
          "indexed": true,
          "internalType": "uint256",
          "name": "tokenId",
          "type": "uint256"
        },
        {
          "indexed": false,
          "internalType": "uint64",
          "name": "resourceId",
          "type": "uint64"
        }
      ],
      "name": "ResourceAccepted",
      "type": "event"
    },
    {
      "anonymous": false,
      "inputs": [
        {
          "indexed": true,
          "internalType": "uint256",
          "name": "tokenId",
          "type": "uint256"
        },
        {
          "indexed": false,
          "internalType": "uint64",
          "name": "resourceId",
          "type": "uint64"
        }
      ],
      "name": "ResourceAddedToToken",
      "type": "event"
    },
    {
      "anonymous": false,
      "inputs": [
        {
          "indexed": false,
          "internalType": "uint64",
          "name": "resourceId",
          "type": "uint64"
        },
        {
          "indexed": false,
          "internalType": "uint128",
          "name": "customResourceId",
          "type": "uint128"
        }
      ],
      "name": "ResourceCustomDataAdded",
      "type": "event"
    },
    {
      "anonymous": false,
      "inputs": [
        {
          "indexed": false,
          "internalType": "uint64",
          "name": "resourceId",
          "type": "uint64"
        },
        {
          "indexed": false,
          "internalType": "uint128",
          "name": "customResourceId",
          "type": "uint128"
        }
      ],
      "name": "ResourceCustomDataRemoved",
      "type": "event"
    },
    {
      "anonymous": false,
      "inputs": [
        {
          "indexed": false,
          "internalType": "uint64",
          "name": "resourceId",
          "type": "uint64"
        },
        {
          "indexed": false,
          "internalType": "uint128",
          "name": "customResourceId",
          "type": "uint128"
        }
      ],
      "name": "ResourceCustomDataSet",
      "type": "event"
    },
    {
      "anonymous": false,
      "inputs": [
        {
          "indexed": true,
          "internalType": "uint256",
          "name": "tokenId",
          "type": "uint256"
        },
        {
          "indexed": false,
          "internalType": "uint64",
          "name": "resourceId",
          "type": "uint64"
        },
        {
          "indexed": false,
          "internalType": "uint64",
          "name": "overwrites",
          "type": "uint64"
        }
      ],
      "name": "ResourceOverwriteProposed",
      "type": "event"
    },
    {
      "anonymous": false,
      "inputs": [
        {
          "indexed": true,
          "internalType": "uint256",
          "name": "tokenId",
          "type": "uint256"
        },
        {
          "indexed": false,
          "internalType": "uint64",
          "name": "overwritten",
          "type": "uint64"
        }
      ],
      "name": "ResourceOverwritten",
      "type": "event"
    },
    {
      "anonymous": false,
      "inputs": [
        {
          "indexed": true,
          "internalType": "uint256",
          "name": "tokenId",
          "type": "uint256"
        }
      ],
      "name": "ResourcePrioritySet",
      "type": "event"
    },
    {
      "anonymous": false,
      "inputs": [
        {
          "indexed": true,
          "internalType": "uint256",
          "name": "tokenId",
          "type": "uint256"
        },
        {
          "indexed": false,
          "internalType": "uint64",
          "name": "resourceId",
          "type": "uint64"
        }
      ],
      "name": "ResourceRejected",
      "type": "event"
    },
    {
      "anonymous": false,
      "inputs": [
        {
          "indexed": false,
          "internalType": "uint64",
          "name": "resourceId",
          "type": "uint64"
        }
      ],
      "name": "ResourceSet",
      "type": "event"
    },
    {
      "anonymous": false,
      "inputs": [
        {
          "indexed": true,
          "internalType": "address",
          "name": "from",
          "type": "address"
        },
        {
          "indexed": true,
          "internalType": "address",
          "name": "to",
          "type": "address"
        },
        {
          "indexed": true,
          "internalType": "uint256",
          "name": "tokenId",
          "type": "uint256"
        }
      ],
      "name": "Transfer",
      "type": "event"
    },
    {
      "inputs": [
        {
          "internalType": "uint256",
          "name": "tokenId",
          "type": "uint256"
        },
        {
          "internalType": "uint256",
          "name": "index",
          "type": "uint256"
        }
      ],
      "name": "acceptResource",
      "outputs": [],
      "stateMutability": "nonpayable",
      "type": "function"
    },
    {
      "inputs": [
        {
          "internalType": "uint64",
          "name": "id",
          "type": "uint64"
        },
        {
          "internalType": "string",
          "name": "metadataURI",
          "type": "string"
        },
        {
          "internalType": "uint128[]",
          "name": "custom",
          "type": "uint128[]"
        }
      ],
      "name": "addResourceEntry",
      "outputs": [],
      "stateMutability": "nonpayable",
      "type": "function"
    },
    {
      "inputs": [
        {
          "internalType": "uint256",
          "name": "tokenId",
          "type": "uint256"
        },
        {
          "internalType": "uint64",
          "name": "resourceId",
          "type": "uint64"
        },
        {
          "internalType": "uint64",
          "name": "overwrites",
          "type": "uint64"
        }
      ],
      "name": "addResourceToToken",
      "outputs": [],
      "stateMutability": "nonpayable",
      "type": "function"
    },
    {
      "inputs": [
        {
          "internalType": "address",
          "name": "to",
          "type": "address"
        },
        {
          "internalType": "uint256",
          "name": "tokenId",
          "type": "uint256"
        }
      ],
      "name": "approve",
      "outputs": [],
      "stateMutability": "nonpayable",
      "type": "function"
    },
    {
      "inputs": [
        {
          "internalType": "address",
          "name": "owner",
          "type": "address"
        }
      ],
      "name": "balanceOf",
      "outputs": [
        {
          "internalType": "uint256",
          "name": "",
          "type": "uint256"
        }
      ],
      "stateMutability": "view",
      "type": "function"
    },
    {
      "inputs": [],
      "name": "feeGetter",
      "outputs": [
        {
          "internalType": "uint256",
          "name": "",
          "type": "uint256"
        }
      ],
      "stateMutability": "view",
      "type": "function"
    },
    {
      "inputs": [
        {
          "internalType": "uint256",
          "name": "newMintFee_",
          "type": "uint256"
        }
      ],
      "name": "feeSetter",
      "outputs": [],
      "stateMutability": "nonpayable",
      "type": "function"
    },
    {
      "inputs": [
        {
          "internalType": "uint256",
          "name": "tokenId",
          "type": "uint256"
        }
      ],
      "name": "getActiveResourcePriorities",
      "outputs": [
        {
          "internalType": "uint16[]",
          "name": "",
          "type": "uint16[]"
        }
      ],
      "stateMutability": "view",
      "type": "function"
    },
    {
      "inputs": [
        {
          "internalType": "uint256",
          "name": "tokenId",
          "type": "uint256"
        }
      ],
      "name": "getActiveResources",
      "outputs": [
        {
          "internalType": "uint64[]",
          "name": "",
          "type": "uint64[]"
        }
      ],
      "stateMutability": "view",
      "type": "function"
    },
    {
      "inputs": [],
      "name": "getAllResources",
      "outputs": [
        {
          "internalType": "uint64[]",
          "name": "",
          "type": "uint64[]"
        }
      ],
      "stateMutability": "view",
      "type": "function"
    },
    {
      "inputs": [
        {
          "internalType": "uint256",
          "name": "tokenId",
          "type": "uint256"
        }
      ],
      "name": "getApproved",
      "outputs": [
        {
          "internalType": "address",
          "name": "",
          "type": "address"
        }
      ],
      "stateMutability": "view",
      "type": "function"
    },
    {
      "inputs": [
        {
          "internalType": "uint64",
          "name": "resourceId",
          "type": "uint64"
        },
        {
          "internalType": "uint128",
          "name": "customResourceId",
          "type": "uint128"
        }
      ],
      "name": "getCustomResourceData",
      "outputs": [
        {
          "internalType": "bytes",
          "name": "",
          "type": "bytes"
        }
      ],
      "stateMutability": "view",
      "type": "function"
    },
    {
      "inputs": [],
      "name": "getFallbackURI",
      "outputs": [
        {
          "internalType": "string",
          "name": "",
          "type": "string"
        }
      ],
      "stateMutability": "view",
      "type": "function"
    },
    {
      "inputs": [
        {
          "internalType": "uint256",
          "name": "tokenId",
          "type": "uint256"
        }
      ],
      "name": "getFullPendingResources",
      "outputs": [
        {
          "components": [
            {
              "internalType": "uint64",
              "name": "id",
              "type": "uint64"
            },
            {
              "internalType": "string",
              "name": "metadataURI",
              "type": "string"
            },
            {
              "internalType": "uint128[]",
              "name": "custom",
              "type": "uint128[]"
            }
          ],
          "internalType": "struct IRMRKMultiResource.Resource[]",
          "name": "",
          "type": "tuple[]"
        }
      ],
      "stateMutability": "view",
      "type": "function"
    },
    {
      "inputs": [
        {
          "internalType": "uint256",
          "name": "tokenId",
          "type": "uint256"
        }
      ],
      "name": "getFullResources",
      "outputs": [
        {
          "components": [
            {
              "internalType": "uint64",
              "name": "id",
              "type": "uint64"
            },
            {
              "internalType": "string",
              "name": "metadataURI",
              "type": "string"
            },
            {
              "internalType": "uint128[]",
              "name": "custom",
              "type": "uint128[]"
            }
          ],
          "internalType": "struct IRMRKMultiResource.Resource[]",
          "name": "",
          "type": "tuple[]"
        }
      ],
      "stateMutability": "view",
      "type": "function"
    },
    {
      "inputs": [],
      "name": "getIssuer",
      "outputs": [
        {
          "internalType": "address",
          "name": "",
          "type": "address"
        }
      ],
      "stateMutability": "view",
      "type": "function"
    },
    {
      "inputs": [
        {
          "internalType": "uint256",
          "name": "tokenId",
          "type": "uint256"
        },
        {
          "internalType": "uint256",
          "name": "index",
          "type": "uint256"
        }
      ],
      "name": "getPendingResObjectByIndex",
      "outputs": [
        {
          "components": [
            {
              "internalType": "uint64",
              "name": "id",
              "type": "uint64"
            },
            {
              "internalType": "string",
              "name": "metadataURI",
              "type": "string"
            },
            {
              "internalType": "uint128[]",
              "name": "custom",
              "type": "uint128[]"
            }
          ],
          "internalType": "struct IRMRKMultiResource.Resource",
          "name": "",
          "type": "tuple"
        }
      ],
      "stateMutability": "view",
      "type": "function"
    },
    {
      "inputs": [
        {
          "internalType": "uint256",
          "name": "tokenId",
          "type": "uint256"
        }
      ],
      "name": "getPendingResources",
      "outputs": [
        {
          "internalType": "uint64[]",
          "name": "",
          "type": "uint64[]"
        }
      ],
      "stateMutability": "view",
      "type": "function"
    },
    {
      "inputs": [
        {
          "internalType": "uint256",
          "name": "tokenId",
          "type": "uint256"
        },
        {
          "internalType": "uint256",
          "name": "index",
          "type": "uint256"
        }
      ],
      "name": "getResObjectByIndex",
      "outputs": [
        {
          "components": [
            {
              "internalType": "uint64",
              "name": "id",
              "type": "uint64"
            },
            {
              "internalType": "string",
              "name": "metadataURI",
              "type": "string"
            },
            {
              "internalType": "uint128[]",
              "name": "custom",
              "type": "uint128[]"
            }
          ],
          "internalType": "struct IRMRKMultiResource.Resource",
          "name": "",
          "type": "tuple"
        }
      ],
      "stateMutability": "view",
      "type": "function"
    },
    {
      "inputs": [
        {
          "internalType": "uint64",
          "name": "resourceId",
          "type": "uint64"
        }
      ],
      "name": "getResource",
      "outputs": [
        {
          "components": [
            {
              "internalType": "uint64",
              "name": "id",
              "type": "uint64"
            },
            {
              "internalType": "string",
              "name": "metadataURI",
              "type": "string"
            },
            {
              "internalType": "uint128[]",
              "name": "custom",
              "type": "uint128[]"
            }
          ],
          "internalType": "struct IRMRKMultiResource.Resource",
          "name": "",
          "type": "tuple"
        }
      ],
      "stateMutability": "view",
      "type": "function"
    },
    {
      "inputs": [
        {
          "internalType": "uint256",
          "name": "tokenId",
          "type": "uint256"
        },
        {
          "internalType": "uint64",
          "name": "resourceId",
          "type": "uint64"
        }
      ],
      "name": "getResourceOverwrites",
      "outputs": [
        {
          "internalType": "uint64",
          "name": "",
          "type": "uint64"
        }
      ],
      "stateMutability": "view",
      "type": "function"
    },
    {
      "inputs": [
        {
          "internalType": "address",
          "name": "owner",
          "type": "address"
        },
        {
          "internalType": "address",
          "name": "operator",
          "type": "address"
        }
      ],
      "name": "isApprovedForAll",
      "outputs": [
        {
          "internalType": "bool",
          "name": "",
          "type": "bool"
        }
      ],
      "stateMutability": "view",
      "type": "function"
    },
    {
      "inputs": [],
      "name": "isPaused",
      "outputs": [
        {
          "internalType": "bool",
          "name": "",
          "type": "bool"
        }
      ],
      "stateMutability": "view",
      "type": "function"
    },
    {
      "inputs": [
        {
          "internalType": "uint64",
          "name": "resourceId",
          "type": "uint64"
        }
      ],
      "name": "isTokenEnumeratedResource",
      "outputs": [
        {
          "internalType": "bool",
          "name": "",
          "type": "bool"
        }
      ],
      "stateMutability": "view",
      "type": "function"
    },
    {
      "inputs": [],
      "name": "letterboxList",
      "outputs": [
        {
          "internalType": "uint256[]",
          "name": "",
          "type": "uint256[]"
        }
      ],
      "stateMutability": "view",
      "type": "function"
    },
    {
      "inputs": [
        {
          "internalType": "address",
          "name": "owner",
          "type": "address"
        }
      ],
      "name": "letterboxesHeldBy",
      "outputs": [
        {
          "internalType": "uint256[]",
          "name": "",
          "type": "uint256[]"
        }
      ],
      "stateMutability": "view",
      "type": "function"
    },
    {
      "inputs": [
        {
          "internalType": "address",
          "name": "to_",
          "type": "address"
        },
        {
          "internalType": "string",
          "name": "uri_",
          "type": "string"
        }
      ],
      "name": "mintLetterbox",
      "outputs": [],
      "stateMutability": "nonpayable",
      "type": "function"
    },
    {
      "inputs": [
        {
          "internalType": "address",
          "name": "to_",
          "type": "address"
        },
        {
          "internalType": "string",
          "name": "uri_",
          "type": "string"
        }
      ],
      "name": "mintStamp",
      "outputs": [],
      "stateMutability": "payable",
      "type": "function"
    },
    {
      "inputs": [],
      "name": "name",
      "outputs": [
        {
          "internalType": "string",
          "name": "",
          "type": "string"
        }
      ],
      "stateMutability": "view",
      "type": "function"
    },
    {
      "inputs": [],
      "name": "nextResourceId",
      "outputs": [
        {
          "internalType": "uint256",
          "name": "",
          "type": "uint256"
        }
      ],
      "stateMutability": "view",
      "type": "function"
    },
    {
      "inputs": [
        {
          "internalType": "uint256",
          "name": "tokenId",
          "type": "uint256"
        }
      ],
      "name": "ownerOf",
      "outputs": [
        {
          "internalType": "address",
          "name": "",
          "type": "address"
        }
      ],
      "stateMutability": "view",
      "type": "function"
    },
    {
      "inputs": [
        {
          "internalType": "bool",
          "name": "state",
          "type": "bool"
        }
      ],
      "name": "pauseContract",
      "outputs": [],
      "stateMutability": "nonpayable",
      "type": "function"
    },
    {
      "inputs": [
        {
          "internalType": "uint256",
          "name": "tokenId",
          "type": "uint256"
        }
      ],
      "name": "rejectAllResources",
      "outputs": [],
      "stateMutability": "nonpayable",
      "type": "function"
    },
    {
      "inputs": [
        {
          "internalType": "uint256",
          "name": "tokenId",
          "type": "uint256"
        },
        {
          "internalType": "uint256",
          "name": "index",
          "type": "uint256"
        }
      ],
      "name": "rejectResource",
      "outputs": [],
      "stateMutability": "nonpayable",
      "type": "function"
    },
    {
      "inputs": [
        {
          "internalType": "address",
          "name": "from",
          "type": "address"
        },
        {
          "internalType": "address",
          "name": "to",
          "type": "address"
        },
        {
          "internalType": "uint256",
          "name": "tokenId",
          "type": "uint256"
        }
      ],
      "name": "safeTransferFrom",
      "outputs": [],
      "stateMutability": "nonpayable",
      "type": "function"
    },
    {
      "inputs": [
        {
          "internalType": "address",
          "name": "from",
          "type": "address"
        },
        {
          "internalType": "address",
          "name": "to",
          "type": "address"
        },
        {
          "internalType": "uint256",
          "name": "tokenId",
          "type": "uint256"
        },
        {
          "internalType": "bytes",
          "name": "data",
          "type": "bytes"
        }
      ],
      "name": "safeTransferFrom",
      "outputs": [],
      "stateMutability": "nonpayable",
      "type": "function"
    },
    {
      "inputs": [
        {
          "internalType": "address",
          "name": "operator",
          "type": "address"
        },
        {
          "internalType": "bool",
          "name": "approved",
          "type": "bool"
        }
      ],
      "name": "setApprovalForAll",
      "outputs": [],
      "stateMutability": "nonpayable",
      "type": "function"
    },
    {
      "inputs": [
        {
          "internalType": "address",
          "name": "issuer",
          "type": "address"
        }
      ],
      "name": "setIssuer",
      "outputs": [],
      "stateMutability": "nonpayable",
      "type": "function"
    },
    {
      "inputs": [
        {
          "internalType": "uint256",
          "name": "tokenId",
          "type": "uint256"
        },
        {
          "internalType": "uint16[]",
          "name": "priorities",
          "type": "uint16[]"
        }
      ],
      "name": "setPriority",
      "outputs": [],
      "stateMutability": "nonpayable",
      "type": "function"
    },
    {
      "inputs": [
        {
          "internalType": "address",
          "name": "owner",
          "type": "address"
        }
      ],
      "name": "stampsHeldBy",
      "outputs": [
        {
          "internalType": "uint256",
          "name": "",
          "type": "uint256"
        }
      ],
      "stateMutability": "view",
      "type": "function"
    },
    {
      "inputs": [
        {
          "internalType": "bytes4",
          "name": "interfaceId",
          "type": "bytes4"
        }
      ],
      "name": "supportsInterface",
      "outputs": [
        {
          "internalType": "bool",
          "name": "",
          "type": "bool"
        }
      ],
      "stateMutability": "view",
      "type": "function"
    },
    {
      "inputs": [],
      "name": "symbol",
      "outputs": [
        {
          "internalType": "string",
          "name": "",
          "type": "string"
        }
      ],
      "stateMutability": "view",
      "type": "function"
    },
    {
      "inputs": [
        {
          "internalType": "uint256",
          "name": "tokenId",
          "type": "uint256"
        }
      ],
      "name": "tokenURI",
      "outputs": [
        {
          "internalType": "string",
          "name": "",
          "type": "string"
        }
      ],
      "stateMutability": "view",
      "type": "function"
    },
    {
      "inputs": [
        {
          "internalType": "uint256",
          "name": "tokenId",
          "type": "uint256"
        },
        {
          "internalType": "uint256",
          "name": "index",
          "type": "uint256"
        }
      ],
      "name": "tokenURIAtIndex",
      "outputs": [
        {
          "internalType": "string",
          "name": "",
          "type": "string"
        }
      ],
      "stateMutability": "view",
      "type": "function"
    },
    {
      "inputs": [
        {
          "internalType": "uint256",
          "name": "tokenId",
          "type": "uint256"
        },
        {
          "internalType": "uint128",
          "name": "customResourceId",
          "type": "uint128"
        },
        {
          "internalType": "bytes",
          "name": "customResourceValue",
          "type": "bytes"
        }
      ],
      "name": "tokenURIForCustomValue",
      "outputs": [
        {
          "internalType": "string",
          "name": "",
          "type": "string"
        }
      ],
      "stateMutability": "view",
      "type": "function"
    },
    {
      "inputs": [
        {
          "internalType": "address",
          "name": "to",
          "type": "address"
        },
        {
          "internalType": "uint256",
          "name": "tokenId",
          "type": "uint256"
        }
      ],
      "name": "transfer",
      "outputs": [],
      "stateMutability": "nonpayable",
      "type": "function"
    },
    {
      "inputs": [
        {
          "internalType": "address",
          "name": "from",
          "type": "address"
        },
        {
          "internalType": "address",
          "name": "to",
          "type": "address"
        },
        {
          "internalType": "uint256",
          "name": "tokenId",
          "type": "uint256"
        }
      ],
      "name": "transferFrom",
      "outputs": [],
      "stateMutability": "nonpayable",
      "type": "function"
    },
    {
      "inputs": [],
      "name": "withdraw",
      "outputs": [],
      "stateMutability": "payable",
      "type": "function"
    }
  ],
  "bytecode": "0x60806040523480156200001157600080fd5b506040518060400160405280601081526020017f4e544c6574746572426f78696e675631000000000000000000000000000000008152506040518060400160405280600781526020017f4c545242587631000000000000000000000000000000000000000000000000008152508181620000a0620000946200011f60201b60201c565b6200012760201b60201c565b8160019081620000b19190620003fa565b508060029081620000c39190620003fa565b50505050506000601381905550620000e760126200016a60201b620021fa1760201c565b620000fe60116200016a60201b620021fa1760201c565b6000601460006101000a81548160ff021916908315150217905550620004e1565b600033905090565b806000806101000a81548173ffffffffffffffffffffffffffffffffffffffff021916908373ffffffffffffffffffffffffffffffffffffffff16021790555050565b6001816000016000828254019250508190555050565b600081519050919050565b7f4e487b7100000000000000000000000000000000000000000000000000000000600052604160045260246000fd5b7f4e487b7100000000000000000000000000000000000000000000000000000000600052602260045260246000fd5b600060028204905060018216806200020257607f821691505b602082108103620002185762000217620001ba565b5b50919050565b60008190508160005260206000209050919050565b60006020601f8301049050919050565b600082821b905092915050565b600060088302620002827fffffffffffffffffffffffffffffffffffffffffffffffffffffffffffffffff8262000243565b6200028e868362000243565b95508019841693508086168417925050509392505050565b6000819050919050565b6000819050919050565b6000620002db620002d5620002cf84620002a6565b620002b0565b620002a6565b9050919050565b6000819050919050565b620002f783620002ba565b6200030f6200030682620002e2565b84845462000250565b825550505050565b600090565b6200032662000317565b62000333818484620002ec565b505050565b5b818110156200035b576200034f6000826200031c565b60018101905062000339565b5050565b601f821115620003aa5762000374816200021e565b6200037f8462000233565b810160208510156200038f578190505b620003a76200039e8562000233565b83018262000338565b50505b505050565b600082821c905092915050565b6000620003cf60001984600802620003af565b1980831691505092915050565b6000620003ea8383620003bc565b9150826002028217905092915050565b620004058262000180565b67ffffffffffffffff8111156200042157620004206200018b565b5b6200042d8254620001e9565b6200043a8282856200035f565b600060209050601f8311600181146200047257600084156200045d578287015190505b620004698582620003dc565b865550620004d9565b601f19841662000482866200021e565b60005b82811015620004ac5784890151825560018201915060208501945060208101905062000485565b86831015620004cc5784890151620004c8601f891682620003bc565b8355505b6001600288020188555050505b505050505050565b615c3180620004f16000396000f3fe6080604052600436106102935760003560e01c806392401eb61161015a578063cfd71cf4116100c1578063e985e9c51161007a578063e985e9c514610a8a578063ec9e248214610ac7578063efad29bf14610af0578063f638085c14610b1b578063f64669c314610b58578063fe679c6214610b9557610293565b8063cfd71cf414610965578063d61fcfc514610981578063daf30477146109be578063dd6433d4146109fb578063e272b89214610a24578063e2e286af14610a4d57610293565b8063a9059cbb11610113578063a9059cbb14610857578063b187bd2614610880578063b88d4fde146108ab578063baace33e146108d4578063c48a4243146108ff578063c87b56dd1461092857610293565b806392401eb61461072157806395d89b411461074c578063a0eaec4314610777578063a221abf3146107b4578063a22cb465146107f1578063a8cf55641461081a57610293565b80633ccfd60b116101fe5780635de1b4f7116101b75780635de1b4f7146105ff5780636352211e1461062a5780636776a7ac1461066757806370a0823114610692578063739817dd146106cf5780637b2e40fa146106f857610293565b80633ccfd60b14610512578063408fc2651461051c57806342842e0e1461054557806348afe9cd1461056e57806352556421146105ab57806355cc4e57146105d657610293565b80630cc83235116102505780630cc83235146103cc5780630e90683114610409578063135627cd1461043257806322835f591461046f57806323b872dd146104ac57806331c57d13146104d557610293565b806301ffc9a7146102985780630485c741146102d557806306fdde0314610312578063081812fc1461033d578063095ea7b31461037a578063096835be146103a3575b600080fd5b3480156102a457600080fd5b506102bf60048036038101906102ba91906142b9565b610bd2565b6040516102cc9190614301565b60405180910390f35b3480156102e157600080fd5b506102fc60048036038101906102f79190614352565b610c4c565b604051610309919061462e565b60405180910390f35b34801561031e57600080fd5b50610327610cf9565b604051610334919061469a565b60405180910390f35b34801561034957600080fd5b50610364600480360381019061035f9190614352565b610d8b565b60405161037191906146fd565b60405180910390f35b34801561038657600080fd5b506103a1600480360381019061039c9190614744565b610e07565b005b3480156103af57600080fd5b506103ca60048036038101906103c59190614906565b610f10565b005b3480156103d857600080fd5b506103f360048036038101906103ee9190614352565b610f29565b604051610400919061462e565b60405180910390f35b34801561041557600080fd5b50610430600480360381019061042b9190614a17565b610fd6565b005b34801561043e57600080fd5b5061045960048036038101906104549190614352565b611072565b6040516104669190614b31565b60405180910390f35b34801561047b57600080fd5b5061049660048036038101906104919190614b53565b611105565b6040516104a39190614c3e565b60405180910390f35b3480156104b857600080fd5b506104d360048036038101906104ce9190614c60565b611241565b005b3480156104e157600080fd5b506104fc60048036038101906104f79190614cdf565b611298565b6040516105099190614301565b60405180910390f35b61051a6112d6565b005b34801561052857600080fd5b50610543600480360381019061053e9190614352565b611327565b005b34801561055157600080fd5b5061056c60048036038101906105679190614c60565b611339565b005b34801561057a57600080fd5b5061059560048036038101906105909190614b53565b611359565b6040516105a29190614d1b565b60405180910390f35b3480156105b757600080fd5b506105c06113a2565b6040516105cd91906146fd565b60405180910390f35b3480156105e257600080fd5b506105fd60048036038101906105f89190614b53565b6113cb565b005b34801561060b57600080fd5b506106146113df565b6040516106219190614d1b565b60405180910390f35b34801561063657600080fd5b50610651600480360381019061064c9190614352565b6113e9565b60405161065e91906146fd565b60405180910390f35b34801561067357600080fd5b5061067c611491565b6040516106899190614c3e565b60405180910390f35b34801561069e57600080fd5b506106b960048036038101906106b49190614b53565b6114e9565b6040516106c69190614d1b565b60405180910390f35b3480156106db57600080fd5b506106f660048036038101906106f19190614d36565b611597565b005b34801561070457600080fd5b5061071f600480360381019061071a9190614352565b6115b0565b005b34801561072d57600080fd5b506107366115c7565b604051610743919061469a565b60405180910390f35b34801561075857600080fd5b50610761611659565b60405161076e919061469a565b60405180910390f35b34801561078357600080fd5b5061079e60048036038101906107999190614352565b6116eb565b6040516107ab9190614e25565b60405180910390f35b3480156107c057600080fd5b506107db60048036038101906107d69190614d36565b61178a565b6040516107e89190614e9e565b60405180910390f35b3480156107fd57600080fd5b5061081860048036038101906108139190614eec565b6117cb565b005b34801561082657600080fd5b50610841600480360381019061083c9190614d36565b6117e1565b60405161084e9190614e9e565b60405180910390f35b34801561086357600080fd5b5061087e60048036038101906108799190614744565b611822565b005b34801561088c57600080fd5b50610895611838565b6040516108a29190614301565b60405180910390f35b3480156108b757600080fd5b506108d260048036038101906108cd9190614fcd565b611857565b005b3480156108e057600080fd5b506108e96118b0565b6040516108f69190614e25565b60405180910390f35b34801561090b57600080fd5b5061092660048036038101906109219190615050565b61193c565b005b34801561093457600080fd5b5061094f600480360381019061094a9190614352565b6119ad565b60405161095c919061469a565b60405180910390f35b61097f600480360381019061097a9190614a17565b6119c1565b005b34801561098d57600080fd5b506109a860048036038101906109a391906150cf565b611afd565b6040516109b5919061469a565b60405180910390f35b3480156109ca57600080fd5b506109e560048036038101906109e09190614d36565b611cb5565b6040516109f2919061469a565b60405180910390f35b348015610a0757600080fd5b50610a226004803603810190610a1d9190614d36565b611cc9565b005b348015610a3057600080fd5b50610a4b6004803603810190610a46919061513e565b611ce2565b005b348015610a5957600080fd5b50610a746004803603810190610a6f9190614cdf565b611d07565b604051610a819190614e9e565b60405180910390f35b348015610a9657600080fd5b50610ab16004803603810190610aac919061516b565b611f00565b604051610abe9190614301565b60405180910390f35b348015610ad357600080fd5b50610aee6004803603810190610ae9919061526e565b611f94565b005b348015610afc57600080fd5b50610b05612004565b604051610b129190614d1b565b60405180910390f35b348015610b2757600080fd5b50610b426004803603810190610b3d91906152f9565b612015565b604051610b4f919061538e565b60405180910390f35b348015610b6457600080fd5b50610b7f6004803603810190610b7a9190614352565b612104565b604051610b8c9190614e25565b60405180910390f35b348015610ba157600080fd5b50610bbc6004803603810190610bb791906153b0565b6121a3565b604051610bc991906153ff565b60405180910390f35b60007fe0418d4c000000000000000000000000000000000000000000000000000000007bffffffffffffffffffffffffffffffffffffffffffffffffffffffff1916827bffffffffffffffffffffffffffffffffffffffffffffffffffffffff19161480610c455750610c4482612210565b5b9050919050565b60606000600b6000848152602001908152602001600020805480602002602001604051908101604052809291908181526020018280548015610ce157602002820191906000526020600020906000905b82829054906101000a900467ffffffffffffffff1667ffffffffffffffff1681526020019060080190602082600701049283019260010382029150808411610c9c5790505b50505050509050610cf1816122e2565b915050919050565b606060018054610d0890615449565b80601f0160208091040260200160405190810160405280929190818152602001828054610d3490615449565b8015610d815780601f10610d5657610100808354040283529160200191610d81565b820191906000526020600020905b815481529060010190602001808311610d6457829003601f168201915b5050505050905090565b6000610d96826123a4565b610dcc576040517f1a79006400000000000000000000000000000000000000000000000000000000815260040160405180910390fd5b6005600083815260200190815260200160002060009054906101000a900473ffffffffffffffffffffffffffffffffffffffff169050919050565b6000610e12826113e9565b90508073ffffffffffffffffffffffffffffffffffffffff168373ffffffffffffffffffffffffffffffffffffffff1603610e79576040517f0591db6d00000000000000000000000000000000000000000000000000000000815260040160405180910390fd5b8073ffffffffffffffffffffffffffffffffffffffff16610e98612410565b73ffffffffffffffffffffffffffffffffffffffff1614158015610eca5750610ec881610ec3612410565b611f00565b155b15610f01576040517f982462b200000000000000000000000000000000000000000000000000000000815260040160405180910390fd5b610f0b8383612418565b505050565b81610f1a816124d1565b610f24838361251b565b505050565b6060600060086000848152602001908152602001600020805480602002602001604051908101604052809291908181526020018280548015610fbe57602002820191906000526020600020906000905b82829054906101000a900467ffffffffffffffff1667ffffffffffffffff1681526020019060080190602082600701049283019260010382029150808411610f795790505b50505050509050610fce816122e2565b915050919050565b60001515601460009054906101000a900460ff1615151461102c576040517f08c379a0000000000000000000000000000000000000000000000000000000008152600401611023906154ec565b60405180910390fd5b600061103883836125ca565b90506110448382612655565b6015819080600181540180825580915050600190039060005260206000200160009091909190915055505050565b6060600960008381526020019081526020016000208054806020026020016040519081016040528092919081815260200182805480156110f957602002820191906000526020600020906000905b82829054906101000a900461ffff1661ffff16815260200190600201906020826001010492830192600103820291508084116110c05790505b50505050509050919050565b60606000601760008473ffffffffffffffffffffffffffffffffffffffff1673ffffffffffffffffffffffffffffffffffffffff16815260200190815260200160002060000160008154811061115e5761115d61550c565b5b9060005260206000200154116111a9576040517f08c379a00000000000000000000000000000000000000000000000000000000081526004016111a090615587565b60405180910390fd5b601760008373ffffffffffffffffffffffffffffffffffffffff1673ffffffffffffffffffffffffffffffffffffffff16815260200190815260200160002060000180548060200260200160405190810160405280929190818152602001828054801561123557602002820191906000526020600020905b815481526020019060010190808311611221575b50505050509050919050565b61125261124c612410565b826126c2565b611288576040517f2728a9d000000000000000000000000000000000000000000000000000000000815260040160405180910390fd5b611293838383612797565b505050565b6000600c60008367ffffffffffffffff1667ffffffffffffffff16815260200190815260200160002060009054906101000a900460ff169050919050565b6112de6129eb565b3373ffffffffffffffffffffffffffffffffffffffff166108fc479081150290604051600060405180830381858888f19350505050158015611324573d6000803e3d6000fd5b50565b61132f6129eb565b8060138190555050565b61135483838360405180602001604052806000815250611857565b505050565b6000601660008373ffffffffffffffffffffffffffffffffffffffff1673ffffffffffffffffffffffffffffffffffffffff168152602001908152602001600020549050919050565b60008060009054906101000a900473ffffffffffffffffffffffffffffffffffffffff16905090565b6113d36129eb565b6113dc81612a79565b50565b6000601354905090565b6000806003600084815260200190815260200160002060009054906101000a900473ffffffffffffffffffffffffffffffffffffffff169050600073ffffffffffffffffffffffffffffffffffffffff168173ffffffffffffffffffffffffffffffffffffffff1603611488576040517fdba0f85100000000000000000000000000000000000000000000000000000000815260040160405180910390fd5b80915050919050565b606060158054806020026020016040519081016040528092919081815260200182805480156114df57602002820191906000526020600020905b8154815260200190600101908083116114cb575b5050505050905090565b60008073ffffffffffffffffffffffffffffffffffffffff168273ffffffffffffffffffffffffffffffffffffffff1603611550576040517f7772286600000000000000000000000000000000000000000000000000000000815260040160405180910390fd5b600460008373ffffffffffffffffffffffffffffffffffffffff1673ffffffffffffffffffffffffffffffffffffffff168152602001908152602001600020549050919050565b816115a1816124d1565b6115ab8383612abc565b505050565b806115ba816124d1565b6115c382612d9e565b5050565b6060600f80546115d690615449565b80601f016020809104026020016040519081016040528092919081815260200182805461160290615449565b801561164f5780601f106116245761010080835404028352916020019161164f565b820191906000526020600020905b81548152906001019060200180831161163257829003601f168201915b5050505050905090565b60606002805461166890615449565b80601f016020809104026020016040519081016040528092919081815260200182805461169490615449565b80156116e15780601f106116b6576101008083540402835291602001916116e1565b820191906000526020600020905b8154815290600101906020018083116116c457829003601f168201915b5050505050905090565b60606008600083815260200190815260200160002080548060200260200160405190810160405280929190818152602001828054801561177e57602002820191906000526020600020906000905b82829054906101000a900467ffffffffffffffff1667ffffffffffffffff16815260200190600801906020826007010492830192600103820291508084116117395790505b50505050509050919050565b61179261405f565b600061179d84612104565b83815181106117af576117ae61550c565b5b602002602001015190506117c281611d07565b91505092915050565b6117dd6117d6612410565b8383612ecf565b5050565b6117e961405f565b60006117f4846116eb565b83815181106118065761180561550c565b5b6020026020010151905061181981611d07565b91505092915050565b61183461182d612410565b8383611241565b5050565b60006118426129eb565b601460009054906101000a900460ff16905090565b611868611862612410565b836126c2565b61189e576040517f2728a9d000000000000000000000000000000000000000000000000000000000815260040160405180910390fd5b6118aa84848484613032565b50505050565b6060600e80548060200260200160405190810160405280929190818152602001828054801561193257602002820191906000526020600020906000905b82829054906101000a900467ffffffffffffffff1667ffffffffffffffff16815260200190600801906020826007010492830192600103820291508084116118ed5790505b5050505050905090565b82611946816124d1565b60001515601460009054906101000a900460ff1615151461199c576040517f08c379a0000000000000000000000000000000000000000000000000000000008152600401611993906154ec565b60405180910390fd5b6119a7848484613085565b50505050565b60606119ba826000613357565b9050919050565b816000600460008373ffffffffffffffffffffffffffffffffffffffff1673ffffffffffffffffffffffffffffffffffffffff1681526020019081526020016000205414611a44576040517f08c379a0000000000000000000000000000000000000000000000000000000008152600401611a3b906155f3565b60405180910390fd5b60001515601460009054906101000a900460ff16151514611a9a576040517f08c379a0000000000000000000000000000000000000000000000000000000008152600401611a91906154ec565b60405180910390fd5b601354341015611adf576040517f08c379a0000000000000000000000000000000000000000000000000000000008152600401611ad690615685565b60405180910390fd5b6000611aeb84846125ca565b9050611af78482613513565b50505050565b6060600060086000868152602001908152602001600020805480602002602001604051908101604052809291908181526020018280548015611b9257602002820191906000526020600020906000905b82829054906101000a900467ffffffffffffffff1667ffffffffffffffff1681526020019060080190602082600701049283019260010382029150808411611b4d5790505b5050505050905060006008600087815260200190815260200160002080549050905060005b81811015611c1d576000611be5848381518110611bd757611bd661550c565b5b602002602001015188612015565b90508580519060200120818051906020012003611c1157611c068883613357565b945050505050611cae565b81600101915050611bb7565b50600f8054611c2b90615449565b80601f0160208091040260200160405190810160405280929190818152602001828054611c5790615449565b8015611ca45780601f10611c7957610100808354040283529160200191611ca4565b820191906000526020600020905b815481529060010190602001808311611c8757829003601f168201915b5050505050925050505b9392505050565b6060611cc18383613357565b905092915050565b81611cd3816124d1565b611cdd838361355b565b505050565b611cea6129eb565b80601460006101000a81548160ff02191690831515021790555050565b611d0f61405f565b6000601060008467ffffffffffffffff1667ffffffffffffffff1681526020019081526020016000206040518060600160405290816000820160009054906101000a900467ffffffffffffffff1667ffffffffffffffff1667ffffffffffffffff168152602001600182018054611d8590615449565b80601f0160208091040260200160405190810160405280929190818152602001828054611db190615449565b8015611dfe5780601f10611dd357610100808354040283529160200191611dfe565b820191906000526020600020905b815481529060010190602001808311611de157829003601f168201915b5050505050815260200160028201805480602002602001604051908101604052809291908181526020018280548015611e9a57602002820191906000526020600020906000905b82829054906101000a90046fffffffffffffffffffffffffffffffff166fffffffffffffffffffffffffffffffff1681526020019060100190602082600f01049283019260010382029150808411611e455790505b5050505050815250509050600067ffffffffffffffff16816000015167ffffffffffffffff1603611ef7576040517f48e2e83700000000000000000000000000000000000000000000000000000000815260040160405180910390fd5b80915050919050565b6000600660008473ffffffffffffffffffffffffffffffffffffffff1673ffffffffffffffffffffffffffffffffffffffff16815260200190815260200160002060008373ffffffffffffffffffffffffffffffffffffffff1673ffffffffffffffffffffffffffffffffffffffff16815260200190815260200160002060009054906101000a900460ff16905092915050565b60001515601460009054906101000a900460ff16151514611fea576040517f08c379a0000000000000000000000000000000000000000000000000000000008152600401611fe1906154ec565b60405180910390fd5b611ff58383836136ff565b611fff60126121fa565b505050565b60006120106012613922565b905090565b6060600d60008467ffffffffffffffff1667ffffffffffffffff1681526020019081526020016000206000836fffffffffffffffffffffffffffffffff166fffffffffffffffffffffffffffffffff168152602001908152602001600020805461207e90615449565b80601f01602080910402602001604051908101604052809291908181526020018280546120aa90615449565b80156120f75780601f106120cc576101008083540402835291602001916120f7565b820191906000526020600020905b8154815290600101906020018083116120da57829003601f168201915b5050505050905092915050565b6060600b600083815260200190815260200160002080548060200260200160405190810160405280929190818152602001828054801561219757602002820191906000526020600020906000905b82829054906101000a900467ffffffffffffffff1667ffffffffffffffff16815260200190600801906020826007010492830192600103820291508084116121525790505b50505050509050919050565b60006007600084815260200190815260200160002060008367ffffffffffffffff1667ffffffffffffffff16815260200190815260200160002060009054906101000a900467ffffffffffffffff16905092915050565b6001816000016000828254019250508190555050565b60007f80ac58cd000000000000000000000000000000000000000000000000000000007bffffffffffffffffffffffffffffffffffffffffffffffffffffffff1916827bffffffffffffffffffffffffffffffffffffffffffffffffffffffff191614806122db57507f01ffc9a7000000000000000000000000000000000000000000000000000000007bffffffffffffffffffffffffffffffffffffffffffffffffffffffff1916827bffffffffffffffffffffffffffffffffffffffffffffffffffffffff1916145b9050919050565b606060008251905060008167ffffffffffffffff81111561230657612305614789565b5b60405190808252806020026020018201604052801561233f57816020015b61232c61405f565b8152602001906001900390816123245790505b50905060005b82811015612399576123708582815181106123635761236261550c565b5b6020026020010151611d07565b8282815181106123835761238261550c565b5b6020026020010181905250806001019050612345565b508092505050919050565b60008073ffffffffffffffffffffffffffffffffffffffff166003600084815260200190815260200160002060009054906101000a900473ffffffffffffffffffffffffffffffffffffffff1673ffffffffffffffffffffffffffffffffffffffff1614159050919050565b600033905090565b816005600083815260200190815260200160002060006101000a81548173ffffffffffffffffffffffffffffffffffffffff021916908373ffffffffffffffffffffffffffffffffffffffff160217905550808273ffffffffffffffffffffffffffffffffffffffff1661248b836113e9565b73ffffffffffffffffffffffffffffffffffffffff167f8c5be1e5ebec7d5bd14f71427d1e84f3dd0314c0f7b2291e5b200ac8c7c3b92560405160405180910390a45050565b6124e26124dc612410565b826126c2565b612518576040517f2728a9d000000000000000000000000000000000000000000000000000000000815260040160405180910390fd5b50565b60008151905060086000848152602001908152602001600020805490508114612570576040517f6b037c3a00000000000000000000000000000000000000000000000000000000815260040160405180910390fd5b8160096000858152602001908152602001600020908051906020019061259792919061408a565b50827f50a12ecfcaf26b91454fd23edbcf04185b68d6e8c7edc4e35d14392889cdf79560405160405180910390a2505050565b60006125df836125da6011613922565b613930565b606060006125f56125f06012613922565b61394e565b9050612602818584611f94565b61261761260f6011613922565b82600061193c565b61262b6126246011613922565b6000611597565b61263560116121fa565b60016126416011613922565b61264b91906156d4565b9250505092915050565b601760008373ffffffffffffffffffffffffffffffffffffffff1673ffffffffffffffffffffffffffffffffffffffff1681526020019081526020016000206000018190806001815401808255809150506001900390600052602060002001600090919091909150555050565b60006126cd826123a4565b612703576040517fdba0f85100000000000000000000000000000000000000000000000000000000815260040160405180910390fd5b600061270e836113e9565b90508073ffffffffffffffffffffffffffffffffffffffff168473ffffffffffffffffffffffffffffffffffffffff161480612750575061274f8185611f00565b5b8061278e57508373ffffffffffffffffffffffffffffffffffffffff1661277684610d8b565b73ffffffffffffffffffffffffffffffffffffffff16145b91505092915050565b8273ffffffffffffffffffffffffffffffffffffffff166127b7826113e9565b73ffffffffffffffffffffffffffffffffffffffff1614612804576040517fe146af6f00000000000000000000000000000000000000000000000000000000815260040160405180910390fd5b600073ffffffffffffffffffffffffffffffffffffffff168273ffffffffffffffffffffffffffffffffffffffff160361286a576040517fe3d91bfc00000000000000000000000000000000000000000000000000000000815260040160405180910390fd5b612875838383613958565b612880600082612418565b6001600460008573ffffffffffffffffffffffffffffffffffffffff1673ffffffffffffffffffffffffffffffffffffffff16815260200190815260200160002060008282546128d091906156d4565b925050819055506001600460008473ffffffffffffffffffffffffffffffffffffffff1673ffffffffffffffffffffffffffffffffffffffff16815260200190815260200160002060008282546129279190615708565b92505081905550816003600083815260200190815260200160002060006101000a81548173ffffffffffffffffffffffffffffffffffffffff021916908373ffffffffffffffffffffffffffffffffffffffff160217905550808273ffffffffffffffffffffffffffffffffffffffff168473ffffffffffffffffffffffffffffffffffffffff167fddf252ad1be2c89b69c2b068fc378daa952ba7f163c4a11628f55a4df523b3ef60405160405180910390a46129e683838361395d565b505050565b60008054906101000a900473ffffffffffffffffffffffffffffffffffffffff1673ffffffffffffffffffffffffffffffffffffffff16612a2a612410565b73ffffffffffffffffffffffffffffffffffffffff1614612a77576040517f8251e42200000000000000000000000000000000000000000000000000000000815260040160405180910390fd5b565b806000806101000a81548173ffffffffffffffffffffffffffffffffffffffff021916908373ffffffffffffffffffffffffffffffffffffffff16021790555050565b600b6000838152602001908152602001600020805490508110612b0b576040517f0757d52100000000000000000000000000000000000000000000000000000000815260040160405180910390fd5b6000600b60008481526020019081526020016000208281548110612b3257612b3161550c565b5b90600052602060002090600491828204019190066008029054906101000a900467ffffffffffffffff169050612b8382600b600086815260200190815260200160002061396290919063ffffffff16565b60006007600085815260200190815260200160002060008367ffffffffffffffff1667ffffffffffffffff16815260200190815260200160002060009054906101000a900467ffffffffffffffff169050600067ffffffffffffffff168167ffffffffffffffff1614612c9d57612c158160086000878152602001908152602001600020613a5690919063ffffffff16565b837f0c3ab9436ca1f55688a28969e7eac425945dded8cc4acf7f4e738cfa6fa1657c82604051612c4591906153ff565b60405180910390a26007600085815260200190815260200160002060008367ffffffffffffffff1667ffffffffffffffff16815260200190815260200160002060006101000a81549067ffffffffffffffff02191690555b600860008581526020019081526020016000208290806001815401808255809150506001900390600052602060002090600491828204019190066008029091909190916101000a81548167ffffffffffffffff021916908367ffffffffffffffff16021790555060096000858152602001908152602001600020600090806001815401808255809150506001900390600052602060002090601091828204019190066002029091909190916101000a81548161ffff021916908361ffff160217905550837f51e9958189f528b912f96508d6a4b68583858166eda14d580dfbd24e9a79dfdb83604051612d9091906153ff565b60405180910390a250505050565b6000600b600083815260200190815260200160002080549050905060005b81811015612e72576000600b60008581526020019081526020016000208281548110612deb57612dea61550c565b5b90600052602060002090600491828204019190066008029054906101000a900467ffffffffffffffff1690506007600085815260200190815260200160002060008267ffffffffffffffff1667ffffffffffffffff16815260200190815260200160002060006101000a81549067ffffffffffffffff021916905581600101915050612dbc565b50600b60008381526020019081526020016000206000612e929190614134565b817f8d0cdca57de6b2fb4babd8b68c83db0b0981610d338eb68eea1f4b1e1d78dc1c6000604051612ec391906153ff565b60405180910390a25050565b8173ffffffffffffffffffffffffffffffffffffffff168373ffffffffffffffffffffffffffffffffffffffff1603612f34576040517f2dee66e400000000000000000000000000000000000000000000000000000000815260040160405180910390fd5b80600660008573ffffffffffffffffffffffffffffffffffffffff1673ffffffffffffffffffffffffffffffffffffffff16815260200190815260200160002060008473ffffffffffffffffffffffffffffffffffffffff1673ffffffffffffffffffffffffffffffffffffffff16815260200190815260200160002060006101000a81548160ff0219169083151502179055508173ffffffffffffffffffffffffffffffffffffffff168373ffffffffffffffffffffffffffffffffffffffff167f17307eab39ab6107e8899845ad3d59bd9653f200f220920489ca2b5937696c31836040516130259190614301565b60405180910390a3505050565b61303d848484612797565b61304984848484613b45565b61307f576040517fbcb5663700000000000000000000000000000000000000000000000000000000815260040160405180910390fd5b50505050565b600a600084815260200190815260200160002060008367ffffffffffffffff1667ffffffffffffffff16815260200190815260200160002060009054906101000a900460ff1615613102576040517f3348dd1d00000000000000000000000000000000000000000000000000000000815260040160405180910390fd5b600067ffffffffffffffff1661311783611d07565b6000015167ffffffffffffffff160361315c576040517f0f8f451500000000000000000000000000000000000000000000000000000000815260040160405180910390fd5b6080600b600085815260200190815260200160002080549050106131ac576040517fdfaea09b00000000000000000000000000000000000000000000000000000000815260040160405180910390fd5b6001600a600085815260200190815260200160002060008467ffffffffffffffff1667ffffffffffffffff16815260200190815260200160002060006101000a81548160ff021916908315150217905550600b60008481526020019081526020016000208290806001815401808255809150506001900390600052602060002090600491828204019190066008029091909190916101000a81548167ffffffffffffffff021916908367ffffffffffffffff160217905550600067ffffffffffffffff168167ffffffffffffffff161461331a57806007600085815260200190815260200160002060008467ffffffffffffffff1667ffffffffffffffff16815260200190815260200160002060006101000a81548167ffffffffffffffff021916908367ffffffffffffffff160217905550827fe76caab2912f68cd628bc085e006c86b8a478d13be698638b0c533030d120b4e838360405161331192919061575e565b60405180910390a25b827ffc4d0a03f3026d7ce3427493c9289ea9768a6edd425e854cea7600d244ecc2c38360405161334a91906153ff565b60405180910390a2505050565b6060816008600085815260200190815260200160002080549050111561347f57600060086000858152602001908152602001600020838154811061339e5761339d61550c565b5b90600052602060002090600491828204019190066008029054906101000a900467ffffffffffffffff169050606060006133d783611d07565b9050600c60008467ffffffffffffffff1667ffffffffffffffff16815260200190815260200160002060009054906101000a900460ff1661341e5780602001519150613474565b60008160200151905060008151116134455760405180602001604052806000815250613470565b8061344f88613cc3565b6040516020016134609291906157c3565b6040516020818303038152906040525b9250505b81935050505061350d565b600f805461348c90615449565b80601f01602080910402602001604051908101604052809291908181526020018280546134b890615449565b80156135055780601f106134da57610100808354040283529160200191613505565b820191906000526020600020905b8154815290600101906020018083116134e857829003601f168201915b505050505090505b92915050565b80601660008473ffffffffffffffffffffffffffffffffffffffff1673ffffffffffffffffffffffffffffffffffffffff168152602001908152602001600020819055505050565b600b60008381526020019081526020016000208054905081106135aa576040517f0757d52100000000000000000000000000000000000000000000000000000000815260040160405180910390fd5b6000600b600084815260200190815260200160002082815481106135d1576135d061550c565b5b90600052602060002090600491828204019190066008029054906101000a900467ffffffffffffffff16905061362282600b600086815260200190815260200160002061396290919063ffffffff16565b6000600a600085815260200190815260200160002060008367ffffffffffffffff1667ffffffffffffffff16815260200190815260200160002060006101000a81548160ff0219169083151502179055506007600084815260200190815260200160002060008267ffffffffffffffff1667ffffffffffffffff16815260200190815260200160002060006101000a81549067ffffffffffffffff0219169055827f8d0cdca57de6b2fb4babd8b68c83db0b0981610d338eb68eea1f4b1e1d78dc1c826040516136f291906153ff565b60405180910390a2505050565b600067ffffffffffffffff168367ffffffffffffffff160361374d576040517f280d806300000000000000000000000000000000000000000000000000000000815260040160405180910390fd5b600067ffffffffffffffff16601060008567ffffffffffffffff1667ffffffffffffffff16815260200190815260200160002060000160009054906101000a900467ffffffffffffffff1667ffffffffffffffff16146137d9576040517f3348dd1d00000000000000000000000000000000000000000000000000000000815260040160405180910390fd5b600060405180606001604052808567ffffffffffffffff16815260200184815260200183815250905080601060008667ffffffffffffffff1667ffffffffffffffff16815260200190815260200160002060008201518160000160006101000a81548167ffffffffffffffff021916908367ffffffffffffffff160217905550602082015181600101908161386e9190615993565b50604082015181600201908051906020019061388b92919061415c565b50905050600e8490806001815401808255809150506001900390600052602060002090600491828204019190066008029091909190916101000a81548167ffffffffffffffff021916908367ffffffffffffffff1602179055507f8a5ccfca4023cda4a0a59a1bb73783f6b3ba77465537d0c8f2bef5eb2511552a8460405161391491906153ff565b60405180910390a150505050565b600081600001549050919050565b61394a828260405180602001604052806000815250613e23565b5050565b6000819050919050565b505050565b505050565b8180549050811061397257600080fd5b816001838054905061398491906156d4565b815481106139955761399461550c565b5b90600052602060002090600491828204019190066008029054906101000a900467ffffffffffffffff168282815481106139d2576139d161550c565b5b90600052602060002090600491828204019190066008026101000a81548167ffffffffffffffff021916908367ffffffffffffffff16021790555081805480613a1e57613a1d615a65565b5b60019003818190600052602060002090600491828204019190066008026101000a81549067ffffffffffffffff021916905590555050565b600082805480602002602001604051908101604052809291908181526020018280548015613ad757602002820191906000526020600020906000905b82829054906101000a900467ffffffffffffffff1667ffffffffffffffff1681526020019060080190602082600701049283019260010382029150808411613a925790505b5050505050905060008151905060005b81811015613b3e578367ffffffffffffffff16838281518110613b0d57613b0c61550c565b5b602002602001015167ffffffffffffffff1603613b3357613b2e8582613962565b613b3e565b806001019050613ae7565b5050505050565b6000613b668473ffffffffffffffffffffffffffffffffffffffff16613e75565b15613cb6578373ffffffffffffffffffffffffffffffffffffffff1663150b7a02613b8f612410565b8786866040518563ffffffff1660e01b8152600401613bb19493929190615a94565b6020604051808303816000875af1925050508015613bed57506040513d601f19601f82011682018060405250810190613bea9190615af5565b60015b613c66573d8060008114613c1d576040519150601f19603f3d011682016040523d82523d6000602084013e613c22565b606091505b506000815103613c5e576040517fbcb5663700000000000000000000000000000000000000000000000000000000815260040160405180910390fd5b805181602001fd5b63150b7a0260e01b7bffffffffffffffffffffffffffffffffffffffffffffffffffffffff1916817bffffffffffffffffffffffffffffffffffffffffffffffffffffffff191614915050613cbb565b600190505b949350505050565b606060008203613d0a576040518060400160405280600181526020017f30000000000000000000000000000000000000000000000000000000000000008152509050613e1e565b600082905060005b60008214613d3c578080613d2590615b22565b915050600a82613d359190615b99565b9150613d12565b60008167ffffffffffffffff811115613d5857613d57614789565b5b6040519080825280601f01601f191660200182016040528015613d8a5781602001600182028036833780820191505090505b5090505b60008514613e1757600182613da391906156d4565b9150600a85613db29190615bca565b6030613dbe9190615708565b60f81b818381518110613dd457613dd361550c565b5b60200101907effffffffffffffffffffffffffffffffffffffffffffffffffffffffffffff1916908160001a905350600a85613e109190615b99565b9450613d8e565b8093505050505b919050565b613e2d8383613e98565b613e3a6000848484613b45565b613e70576040517fbcb5663700000000000000000000000000000000000000000000000000000000815260040160405180910390fd5b505050565b6000808273ffffffffffffffffffffffffffffffffffffffff163b119050919050565b600073ffffffffffffffffffffffffffffffffffffffff168273ffffffffffffffffffffffffffffffffffffffff1603613efe576040517f25bd6bd300000000000000000000000000000000000000000000000000000000815260040160405180910390fd5b613f07816123a4565b15613f3e576040517fc5a8d37100000000000000000000000000000000000000000000000000000000815260040160405180910390fd5b613f4a60008383613958565b6001600460008473ffffffffffffffffffffffffffffffffffffffff1673ffffffffffffffffffffffffffffffffffffffff1681526020019081526020016000206000828254613f9a9190615708565b92505081905550816003600083815260200190815260200160002060006101000a81548173ffffffffffffffffffffffffffffffffffffffff021916908373ffffffffffffffffffffffffffffffffffffffff160217905550808273ffffffffffffffffffffffffffffffffffffffff16600073ffffffffffffffffffffffffffffffffffffffff167fddf252ad1be2c89b69c2b068fc378daa952ba7f163c4a11628f55a4df523b3ef60405160405180910390a461405b6000838361395d565b5050565b6040518060600160405280600067ffffffffffffffff16815260200160608152602001606081525090565b82805482825590600052602060002090600f016010900481019282156141235791602002820160005b838211156140f357835183826101000a81548161ffff021916908361ffff16021790555092602001926002016020816001010492830192600103026140b3565b80156141215782816101000a81549061ffff02191690556002016020816001010492830192600103026140f3565b505b5090506141309190614230565b5090565b5080546000825560030160049004906000526020600020908101906141599190614230565b50565b8280548282559060005260206000209060010160029004810192821561421f5791602002820160005b838211156141e157835183826101000a8154816fffffffffffffffffffffffffffffffff02191690836fffffffffffffffffffffffffffffffff1602179055509260200192601001602081600f01049283019260010302614185565b801561421d5782816101000a8154906fffffffffffffffffffffffffffffffff0219169055601001602081600f010492830192600103026141e1565b505b50905061422c9190614230565b5090565b5b80821115614249576000816000905550600101614231565b5090565b6000604051905090565b600080fd5b600080fd5b60007fffffffff0000000000000000000000000000000000000000000000000000000082169050919050565b61429681614261565b81146142a157600080fd5b50565b6000813590506142b38161428d565b92915050565b6000602082840312156142cf576142ce614257565b5b60006142dd848285016142a4565b91505092915050565b60008115159050919050565b6142fb816142e6565b82525050565b600060208201905061431660008301846142f2565b92915050565b6000819050919050565b61432f8161431c565b811461433a57600080fd5b50565b60008135905061434c81614326565b92915050565b60006020828403121561436857614367614257565b5b60006143768482850161433d565b91505092915050565b600081519050919050565b600082825260208201905092915050565b6000819050602082019050919050565b600067ffffffffffffffff82169050919050565b6143c8816143ab565b82525050565b600081519050919050565b600082825260208201905092915050565b60005b838110156144085780820151818401526020810190506143ed565b83811115614417576000848401525b50505050565b6000601f19601f8301169050919050565b6000614439826143ce565b61444381856143d9565b93506144538185602086016143ea565b61445c8161441d565b840191505092915050565b600081519050919050565b600082825260208201905092915050565b6000819050602082019050919050565b60006fffffffffffffffffffffffffffffffff82169050919050565b6144b881614493565b82525050565b60006144ca83836144af565b60208301905092915050565b6000602082019050919050565b60006144ee82614467565b6144f88185614472565b935061450383614483565b8060005b8381101561453457815161451b88826144be565b9750614526836144d6565b925050600181019050614507565b5085935050505092915050565b600060608301600083015161455960008601826143bf565b5060208301518482036020860152614571828261442e565b9150506040830151848203604086015261458b82826144e3565b9150508091505092915050565b60006145a48383614541565b905092915050565b6000602082019050919050565b60006145c48261437f565b6145ce818561438a565b9350836020820285016145e08561439b565b8060005b8581101561461c57848403895281516145fd8582614598565b9450614608836145ac565b925060208a019950506001810190506145e4565b50829750879550505050505092915050565b6000602082019050818103600083015261464881846145b9565b905092915050565b600082825260208201905092915050565b600061466c826143ce565b6146768185614650565b93506146868185602086016143ea565b61468f8161441d565b840191505092915050565b600060208201905081810360008301526146b48184614661565b905092915050565b600073ffffffffffffffffffffffffffffffffffffffff82169050919050565b60006146e7826146bc565b9050919050565b6146f7816146dc565b82525050565b600060208201905061471260008301846146ee565b92915050565b614721816146dc565b811461472c57600080fd5b50565b60008135905061473e81614718565b92915050565b6000806040838503121561475b5761475a614257565b5b60006147698582860161472f565b925050602061477a8582860161433d565b9150509250929050565b600080fd5b7f4e487b7100000000000000000000000000000000000000000000000000000000600052604160045260246000fd5b6147c18261441d565b810181811067ffffffffffffffff821117156147e0576147df614789565b5b80604052505050565b60006147f361424d565b90506147ff82826147b8565b919050565b600067ffffffffffffffff82111561481f5761481e614789565b5b602082029050602081019050919050565b600080fd5b600061ffff82169050919050565b61484c81614835565b811461485757600080fd5b50565b60008135905061486981614843565b92915050565b600061488261487d84614804565b6147e9565b905080838252602082019050602084028301858111156148a5576148a4614830565b5b835b818110156148ce57806148ba888261485a565b8452602084019350506020810190506148a7565b5050509392505050565b600082601f8301126148ed576148ec614784565b5b81356148fd84826020860161486f565b91505092915050565b6000806040838503121561491d5761491c614257565b5b600061492b8582860161433d565b925050602083013567ffffffffffffffff81111561494c5761494b61425c565b5b614958858286016148d8565b9150509250929050565b600080fd5b600067ffffffffffffffff82111561498257614981614789565b5b61498b8261441d565b9050602081019050919050565b82818337600083830152505050565b60006149ba6149b584614967565b6147e9565b9050828152602081018484840111156149d6576149d5614962565b5b6149e1848285614998565b509392505050565b600082601f8301126149fe576149fd614784565b5b8135614a0e8482602086016149a7565b91505092915050565b60008060408385031215614a2e57614a2d614257565b5b6000614a3c8582860161472f565b925050602083013567ffffffffffffffff811115614a5d57614a5c61425c565b5b614a69858286016149e9565b9150509250929050565b600081519050919050565b600082825260208201905092915050565b6000819050602082019050919050565b614aa881614835565b82525050565b6000614aba8383614a9f565b60208301905092915050565b6000602082019050919050565b6000614ade82614a73565b614ae88185614a7e565b9350614af383614a8f565b8060005b83811015614b24578151614b0b8882614aae565b9750614b1683614ac6565b925050600181019050614af7565b5085935050505092915050565b60006020820190508181036000830152614b4b8184614ad3565b905092915050565b600060208284031215614b6957614b68614257565b5b6000614b778482850161472f565b91505092915050565b600081519050919050565b600082825260208201905092915050565b6000819050602082019050919050565b614bb58161431c565b82525050565b6000614bc78383614bac565b60208301905092915050565b6000602082019050919050565b6000614beb82614b80565b614bf58185614b8b565b9350614c0083614b9c565b8060005b83811015614c31578151614c188882614bbb565b9750614c2383614bd3565b925050600181019050614c04565b5085935050505092915050565b60006020820190508181036000830152614c588184614be0565b905092915050565b600080600060608486031215614c7957614c78614257565b5b6000614c878682870161472f565b9350506020614c988682870161472f565b9250506040614ca98682870161433d565b9150509250925092565b614cbc816143ab565b8114614cc757600080fd5b50565b600081359050614cd981614cb3565b92915050565b600060208284031215614cf557614cf4614257565b5b6000614d0384828501614cca565b91505092915050565b614d158161431c565b82525050565b6000602082019050614d306000830184614d0c565b92915050565b60008060408385031215614d4d57614d4c614257565b5b6000614d5b8582860161433d565b9250506020614d6c8582860161433d565b9150509250929050565b600081519050919050565b600082825260208201905092915050565b6000819050602082019050919050565b6000614dae83836143bf565b60208301905092915050565b6000602082019050919050565b6000614dd282614d76565b614ddc8185614d81565b9350614de783614d92565b8060005b83811015614e18578151614dff8882614da2565b9750614e0a83614dba565b925050600181019050614deb565b5085935050505092915050565b60006020820190508181036000830152614e3f8184614dc7565b905092915050565b6000606083016000830151614e5f60008601826143bf565b5060208301518482036020860152614e77828261442e565b91505060408301518482036040860152614e9182826144e3565b9150508091505092915050565b60006020820190508181036000830152614eb88184614e47565b905092915050565b614ec9816142e6565b8114614ed457600080fd5b50565b600081359050614ee681614ec0565b92915050565b60008060408385031215614f0357614f02614257565b5b6000614f118582860161472f565b9250506020614f2285828601614ed7565b9150509250929050565b600067ffffffffffffffff821115614f4757614f46614789565b5b614f508261441d565b9050602081019050919050565b6000614f70614f6b84614f2c565b6147e9565b905082815260208101848484011115614f8c57614f8b614962565b5b614f97848285614998565b509392505050565b600082601f830112614fb457614fb3614784565b5b8135614fc4848260208601614f5d565b91505092915050565b60008060008060808587031215614fe757614fe6614257565b5b6000614ff58782880161472f565b94505060206150068782880161472f565b93505060406150178782880161433d565b925050606085013567ffffffffffffffff8111156150385761503761425c565b5b61504487828801614f9f565b91505092959194509250565b60008060006060848603121561506957615068614257565b5b60006150778682870161433d565b935050602061508886828701614cca565b925050604061509986828701614cca565b9150509250925092565b6150ac81614493565b81146150b757600080fd5b50565b6000813590506150c9816150a3565b92915050565b6000806000606084860312156150e8576150e7614257565b5b60006150f68682870161433d565b9350506020615107868287016150ba565b925050604084013567ffffffffffffffff8111156151285761512761425c565b5b61513486828701614f9f565b9150509250925092565b60006020828403121561515457615153614257565b5b600061516284828501614ed7565b91505092915050565b6000806040838503121561518257615181614257565b5b60006151908582860161472f565b92505060206151a18582860161472f565b9150509250929050565b600067ffffffffffffffff8211156151c6576151c5614789565b5b602082029050602081019050919050565b60006151ea6151e5846151ab565b6147e9565b9050808382526020820190506020840283018581111561520d5761520c614830565b5b835b81811015615236578061522288826150ba565b84526020840193505060208101905061520f565b5050509392505050565b600082601f83011261525557615254614784565b5b81356152658482602086016151d7565b91505092915050565b60008060006060848603121561528757615286614257565b5b600061529586828701614cca565b935050602084013567ffffffffffffffff8111156152b6576152b561425c565b5b6152c2868287016149e9565b925050604084013567ffffffffffffffff8111156152e3576152e261425c565b5b6152ef86828701615240565b9150509250925092565b600080604083850312156153105761530f614257565b5b600061531e85828601614cca565b925050602061532f858286016150ba565b9150509250929050565b600081519050919050565b600082825260208201905092915050565b600061536082615339565b61536a8185615344565b935061537a8185602086016143ea565b6153838161441d565b840191505092915050565b600060208201905081810360008301526153a88184615355565b905092915050565b600080604083850312156153c7576153c6614257565b5b60006153d58582860161433d565b92505060206153e685828601614cca565b9150509250929050565b6153f9816143ab565b82525050565b600060208201905061541460008301846153f0565b92915050565b7f4e487b7100000000000000000000000000000000000000000000000000000000600052602260045260246000fd5b6000600282049050600182168061546157607f821691505b6020821081036154745761547361541a565b5b50919050565b7f6e6f206d696e74696e67206973207065726d697474656420617420746869732060008201527f74696d6500000000000000000000000000000000000000000000000000000000602082015250565b60006154d6602483614650565b91506154e18261547a565b604082019050919050565b60006020820190508181036000830152615505816154c9565b9050919050565b7f4e487b7100000000000000000000000000000000000000000000000000000000600052603260045260246000fd5b7f7573657220686173206e6f74206d696e746564206c6574746572626f78000000600082015250565b6000615571601d83614650565b915061557c8261553b565b602082019050919050565b600060208201905081810360008301526155a081615564565b9050919050565b7f4f6e6c79206f6e65207374616d70207065722061646472657373000000000000600082015250565b60006155dd601a83614650565b91506155e8826155a7565b602082019050919050565b6000602082019050818103600083015261560c816155d0565b9050919050565b7f496e73756666696369656e742066756e64732073656e7420776974682074726160008201527f6e73616374696f6e000000000000000000000000000000000000000000000000602082015250565b600061566f602883614650565b915061567a82615613565b604082019050919050565b6000602082019050818103600083015261569e81615662565b9050919050565b7f4e487b7100000000000000000000000000000000000000000000000000000000600052601160045260246000fd5b60006156df8261431c565b91506156ea8361431c565b9250828210156156fd576156fc6156a5565b5b828203905092915050565b60006157138261431c565b915061571e8361431c565b9250827fffffffffffffffffffffffffffffffffffffffffffffffffffffffffffffffff03821115615753576157526156a5565b5b828201905092915050565b600060408201905061577360008301856153f0565b61578060208301846153f0565b9392505050565b600081905092915050565b600061579d826143ce565b6157a78185615787565b93506157b78185602086016143ea565b80840191505092915050565b60006157cf8285615792565b91506157db8284615792565b91508190509392505050565b60008190508160005260206000209050919050565b60006020601f8301049050919050565b600082821b905092915050565b6000600883026158497fffffffffffffffffffffffffffffffffffffffffffffffffffffffffffffffff8261580c565b615853868361580c565b95508019841693508086168417925050509392505050565b6000819050919050565b600061589061588b6158868461431c565b61586b565b61431c565b9050919050565b6000819050919050565b6158aa83615875565b6158be6158b682615897565b848454615819565b825550505050565b600090565b6158d36158c6565b6158de8184846158a1565b505050565b5b81811015615902576158f76000826158cb565b6001810190506158e4565b5050565b601f82111561594757615918816157e7565b615921846157fc565b81016020851015615930578190505b61594461593c856157fc565b8301826158e3565b50505b505050565b600082821c905092915050565b600061596a6000198460080261594c565b1980831691505092915050565b60006159838383615959565b9150826002028217905092915050565b61599c826143ce565b67ffffffffffffffff8111156159b5576159b4614789565b5b6159bf8254615449565b6159ca828285615906565b600060209050601f8311600181146159fd57600084156159eb578287015190505b6159f58582615977565b865550615a5d565b601f198416615a0b866157e7565b60005b82811015615a3357848901518255600182019150602085019450602081019050615a0e565b86831015615a505784890151615a4c601f891682615959565b8355505b6001600288020188555050505b505050505050565b7f4e487b7100000000000000000000000000000000000000000000000000000000600052603160045260246000fd5b6000608082019050615aa960008301876146ee565b615ab660208301866146ee565b615ac36040830185614d0c565b8181036060830152615ad58184615355565b905095945050505050565b600081519050615aef8161428d565b92915050565b600060208284031215615b0b57615b0a614257565b5b6000615b1984828501615ae0565b91505092915050565b6000615b2d8261431c565b91507fffffffffffffffffffffffffffffffffffffffffffffffffffffffffffffffff8203615b5f57615b5e6156a5565b5b600182019050919050565b7f4e487b7100000000000000000000000000000000000000000000000000000000600052601260045260246000fd5b6000615ba48261431c565b9150615baf8361431c565b925082615bbf57615bbe615b6a565b5b828204905092915050565b6000615bd58261431c565b9150615be08361431c565b925082615bf057615bef615b6a565b5b82820690509291505056fea26469706673582212207dda4445b26077254f17fb630a0d89edd4a9e2735cb7a90bb9692612702f630064736f6c634300080f0033",
  "linkReferences": {},
  "deployedLinkReferences": {}
}